:020000040800F2
:1000000000A0002061080008A5080008A508000855
:10001000A5080008A5080008A508000800000000C1
:10002000000000000000000000000000A50800081B
:10003000A508000800000000A5080008A5080008A1
:10004000A5080008A5080008A5080008A5080008DC
:10005000A5080008A5080008E1030008A508000895
:10006000A5080008A5080008A5080008A5080008BC
:10007000A5080008A5080008A5080008A5080008AC
:10008000A5080008A5080008A5080008A50800089C
:10009000A5080008A5080008A5080008A50800088C
:1000A000A5080008A5080008A5080008A50800087C
:1000B000A5080008A5080008A5080008A50800086C
:1000C000A5080008A5080008A5080008A50800085C
:1000D000A5080008A5080008A5080008A50800084C
:1000E000A5080008A5080008A5080008A50800083C
:1000F000A5080008A5080008A5080008A50800082C
:10010000000000000000000000000000A50800083A
:10011000A5080008A5080008A5080008A50800080B
:10012000A5080008A5080008A5080008A5080008FB
:10013000A5080008A5080008000000000000000055
:10014000A5080008A5080008A50800080000000090
:10015000000000000000000000000000000000009F
:100160000000000000000000A5080008A508000825
:10017000A5080008000000000000000000000000CA
:1001800000000000A508000880B483B000AF7860CC
:100190000B46FB70FB78002B06D00949084B5A69C7
:1001A0007B6813434B6106E00549054B5A697B6840
:1001B000DB4313404B6100BF0C37BD4680BC70472A
:1001C0000010024080B483B000AF78600B46FB7033
:1001D000FB78002B06D00949084B9A697B681343CA
:1001E0008B6106E00549054B9A697B68DB43134048
:1001F0008B6100BF0C37BD4680BC704700100240C9
:1002000080B487B000AF7860396000237B61002341
:100210003B610023FB6000237B617EE001227B6960
:1002200002FA03F33B613B681A683B691340FB60C9
:10023000FA683B699A426DD13B681B79012B03D068
:100240003B681B79022B36D17B689A687B695B001F
:10025000032101FA03F3DB431A407B689A607B6851
:100260009A683B685B7919467B695B0001FA03F386
:100270001A437B689A607B689B889AB27B699BB2C1
:10028000012101FA03F39BB2DB439BB213409AB204
:100290007B689A807B689B889BB21AB23B689B798B
:1002A00019467B699BB201FA03F31BB213431BB2DD
:1002B0009AB27B689A807B681A687B695B0003212D
:1002C00001FA03F3DB431A407B681A607B681A6803
:1002D0003B681B7919467B695B0001FA03F31A43FB
:1002E0007B681A607B68DA687B699BB25B000321DC
:1002F00001FA03F3DB431A407B68DA607B68DA6853
:100300003B68DB7919467B695B0001FA03F31A430A
:100310007B68DA607B6901337B617B690F2B7FF639
:100320007DAF00BF1C37BD4680BC704780B582B032
:1003300000AF01214FF40010FFF726FF4FF40073C8
:100340003B6001233B7103237B710023BB710023BE
:10035000FB713B4619460D48FFF752FF01214FF450
:100360000030FFF711FF01233B6000233B710323A3
:100370007B710223FB713B4619464FF09040FFF71B
:100380003FFF00BF0837BD4680BD00BF00100048DA
:1003900080B584B000AF01210120FFF713FF0021D9
:1003A000002000F081FA0023BB6000233B73082388
:1003B0007B730123BB7307F10803184600F02AF88A
:1003C00006233B7100237B710023BB710123FB716A
:1003D0003B1D184600F0E2F900BF1037BD4680BD56
:1003E00080B500AF064A064B9B8A9BB283F400732C
:1003F0009BB29382002000F007F900BF80BD00BFD0
:100400000010004880B500AFFFF790FFFFF7C0FF76
:10041000FEE700BF80B485B000AF78600023FB60CA
:10042000754BFB607B689B79002B00F0C8807B6874
:100430001B685B0903F1007303F502635B01184657
:100440007B681B685B0903F1007303F502635B01C2
:100450001A687B681B6803F01F03012101FA03F38C
:10046000DB43134003607B681B685B095A01634BE5
:10047000134418467B681B685B095A015F4B1344A1
:100480001A687B681B6803F01F03012101FA03F35C
:10049000DB43134003607B681B791A467B681B684B
:1004A0005B095B011344FA681344FB60FB68FA685C
:1004B00012687968096801F01F01012000FA01F152
:1004C0000A431A604C4BFB607B681B685B095A014E
:1004D0004B4B134418467B681B685B095A01484B19
:1004E00013441A687B681B6803F01F03012101FA9B
:1004F00003F3DB43134003607B681B685B095A010D
:10050000404B134418467B681B685B095A013D4BFE
:1005100013441A687B681B6803F01F03012101FA6A
:1005200003F3DB43134003607B685B79102B2ED110
:100530007B681B685B095A01314B134418467B6882
:100540001B685B095A012E4B13441B687A681268BA
:1005500002F01F02012101FA02F2134303607B68DB
:100560001B685B095A01274B134418467B681B68BC
:100570005B095A01234B13441B687A68126802F026
:100580001F02012101FA02F2134303602FE07B688E
:100590005B791A467B681B685B095B011344FA6848
:1005A0001344FB60FB68FA6812687968096801F017
:1005B0001F01012000FA01F10A431A6017E07B686D
:1005C0001B791A467B681B685B095B011344FA6858
:1005D0001344FB60FB68FA6811687A68126802F0DD
:1005E0001F02012000FA02F2D2430A401A6000BF43
:1005F0001437BD4680BC704700040140040401402C
:10060000080401400C04014080B483B000AF78605E
:100610007B685B095A01074B134419467B6803F05A
:100620001F03012202FA03F30B6000BF0C37BD4623
:1006300080BC70471404014080B500AF1B4A1B4BBF
:100640001B6843F0010313601849184B5A68184B94
:1006500013404B60154A154B1B6823F0847323F439
:1006600080331360114A114B1B6823F480231360FD
:100670000E4A0E4B5B6823F4FE0353600B4A0B4B90
:10068000DB6A23F00F03D3620849084B1A6B094B4E
:1006900013400B63054B00229A6000F00FF8064BE5
:1006A0004FF000629A6000BF80BD00BF00100240A2
:1006B0000CC07FF8CCFC00FF00ED00E080B483B0FC
:1006C00000AF00237B6000233B60324A314B1B6844
:1006D00043F4803313602F4B1B6803F400333B60FB
:1006E0007B6801337B603B68002B03D17B68B3F5EB
:1006F000A06FF0D1274B1B6803F40033002B02D00E
:1007000001233B6001E000233B603B68012B3CD1AF
:10071000214B12221A601F4A1E4B5B6853601D4A10
:100720001C4B5B6853601B4A1A4B5B6843F4806345
:100730005360184A174B5B6823F47C135360154AC7
:10074000144B5B6843F4E8135360124A114B1B6867
:1007500043F08073136000BF0E4B1B6803F00073FF
:10076000002BF9D00B4A0B4B5B6823F0030353605B
:10077000084A084B5B6843F00203536000BF054B17
:100780005B6803F00C03082BF9D100BF0C37BD46A2
:1007900080BC7047001002400020024080B487B047
:1007A00000AF786000237B6100233B610F23FB6077
:1007B0007B68DB78002B3AD0274BDB68DB4303F404
:1007C000E0631B0A7B617B69C3F104033B61FA6848
:1007D0007B6922FA03F3FB607B685B781A463B690E
:1007E00002FA03F37B617B689B781A46FB6813402F
:1007F0007A6913437B617B691B017B61174A7B68C4
:100800001B787969C9B213440A4683F80023134A56
:100810007B681B785B09DBB218467B681B7803F0AA
:100820001F03012101FA03F342F820300FE00B49C6
:100830007B681B785B09DBB218467B681B7803F08A
:100840001F0301229A4000F1200341F8232000BF3A
:100850001C37BD4680BC704700ED00E000E100E0C1
:10086000002103E00A4B5B584350043109480A4B0E
:1008700042189A42F6D3094A02E0002342F8043BA8
:10088000074B9A42F9D3FFF7D7FEFFF7BBFD70473E
:100890002C090008000000200000002000000020BB
:1008A00000000020FEE7000090B484B000AF0346D3
:1008B0000A46FB711346BB710023FB60BB7903F052
:1008C00003039B000F2202FA03F3FB601649BB7976
:1008D0009B08DBB21846144ABB799B08DBB2023393
:1008E00052F82320FB68DB431A40831C41F8232085
:1008F0000D48BB799B08DBB21C460B4ABB799B08B1
:10090000DBB2023352F82320F979BB7903F00303F9
:100910009B0001FA03F31A43A31C40F8232000BFF5
:0C0920001037BD4690BC7047000001403D
:0400000508000000EF
:00000001FF
