:020000040800F2
:1000000000A00020293500086D3500086D35000876
:100010006D3500086D3500086D35000800000000E2
:10002000000000000000000000000000B1240008F3
:100030006D3500080000000081270008E92700084E
:100040006D3500086D3500086D3500086D35000808
:100050006D3500086D350008210400086D35000875
:100060006D3500086D3500086D3500086D350008E8
:100070006D3500086D3500086D3500086D350008D8
:100080006D3500086D3500086D3500086D350008C8
:100090006D3500086D3500086D3500086D350008B8
:1000A0006D3500086D3500086D3500086D350008A8
:1000B0006D3500086D3500086D3500086D35000898
:1000C0006D3500086D3500086D3500086D35000888
:1000D0006D3500086D3500086D3500086D35000878
:1000E0006D3500086D3500086D3500086D35000868
:1000F0006D3500086D3500086D3500086D35000858
:100100000000000000000000000000006D35000845
:100110006D3500086D3500086D3500086D35000837
:100120006D3500086D3500086D3500086D35000827
:100130006D3500086D35000800000000000000006B
:100140006D3500086D3500086D35000800000000B1
:10015000000000000000000000000000000000009F
:1001600000000000000000006D3500086D3500083B
:100170006D350008000000000000000000000000D5
:10018000000000006D35000880B483B000AF7860D7
:100190000B46FB70FB78002B06D00A49094B5A69C5
:1001A0007B6813434B6106E00649064B5A697B683E
:1001B000DB4313404B6100BF0C37BD465DF8047B49
:1001C000704700BF0010024080B483B000AF786079
:1001D0000B46FB70FB78002B06D00A49094B9A6945
:1001E0007B6813438B6106E00649064B9A697B687E
:1001F000DB4313408B6100BF0C37BD465DF8047BC9
:10020000704700BF0010024080B487B000AF786034
:10021000396000237B6100233B610023FB600023E6
:100220007B617EE001227B6902FA03F33B613B685C
:100230001A683B691340FB60FA683B699A426DD1CA
:100240003B681B79012B03D03B681B79022B36D10D
:100250007B689A687B695B00032101FA03F3DB4347
:100260001A407B689A607B689A683B685B7919469C
:100270007B695B0001FA03F31A437B689A607B6831
:100280009B889AB27B699BB2012101FA03F39BB26E
:10029000DB439BB213409AB27B689A807B689B8851
:1002A0009BB21AB23B689B7919467B699BB201FAF3
:1002B00003F31BB213431BB29AB27B689A807B682C
:1002C0001A687B695B00032101FA03F3DB431A40E0
:1002D0007B681A607B681A683B681B7919467B69E2
:1002E0005B0001FA03F31A437B681A607B68DA68E3
:1002F0007B699BB25B00032101FA03F3DB431A40E5
:100300007B68DA607B68DA683B68DB7919467B6971
:100310005B0001FA03F31A437B68DA607B690133FF
:100320007B617B690F2B7FF67DAF00BF1C37BD461D
:100330005DF8047B704700BF80B582B000AF01213B
:100340004FF40010FFF720FF01214FF40030FFF7BA
:100350001BFF4FF47F433B6003237B7101233B7101
:100360000023BB713B4619460A48FFF74DFF0123A6
:100370003B6003237B7100233B710223FB713B46EF
:1003800019464FF09040FFF73FFF00BF0837BD46CA
:1003900080BD00BF0010004880B584B000AF0121CF
:1003A0000120FFF711FF0021002003F0E1F80023F6
:1003B000BB6000233B7308237B730123BB7307F1EE
:1003C0000803184601F036FD4FF4407001F096FF27
:1003D00006233B7105237B710023BB710123FB7155
:1003E0003B1D184601F09EFF00BF1037BD4680BD83
:1003F00080B582B000AF7860074B1B684FF0FF31CB
:10040000184602F0EDFD054A044B9B8A9BB283F42B
:1004100000739BB29382EFE77C3D00200010004800
:1004200080B582B000AF00237B600E4B1B683A1D85
:100430001146184602F058FC7B68012B0AD17B68F4
:10044000002B07D0084B4FF080521A60BFF34F8F3C
:10045000BFF36F8F002001F0E9FD00BF0837BD46F4
:1004600080BD00BF7C3D002004ED00E080B582B07F
:1004700002AFFFF761FFFFF78FFF0322002101208A
:1004800002F0CAFA0246104B1A600F4B1B68002B91
:1004900006D00D4B186800230022002102F02AFB31
:1004A000094B1B680121184602F09AFD00230193B5
:1004B0000223009300234FF480720449044800F0A3
:1004C000E5FA00F077FCFEE77C3D0020443A0008A6
:1004D000F103000880B400AF00BFBD465DF8047BA7
:1004E000704700BF80B400AFFEE700BF80B483B0A8
:1004F00000AF78603960FEE780B400AF00BFBD4652
:100500005DF8047B704700BF80B584B002AF002364
:100510007B6000F049FA114B1B68002B0BD0104B8D
:1005200001930223009300234FF400720D490E48FB
:1005300000F0ACFA78607B68002B09D14FF05003D3
:1005400083F31188BFF36F8FBFF34F8F3B60FEE7DC
:100550007B6818460837BD4680BD00BF50000020AC
:1005600054000020503A00080D06000880B584B001
:1005700000AFF860B9607A6008E0FB689B69BA6810
:100580001344BB60FB681B6AF8689847FB689A696C
:10059000BB68D118BB687A68F86800F0DBF80346DE
:1005A000002BEAD100BF1037BD4680BD80B584B0B6
:1005B00000AF78603960144B1B68DB68DB68FB6058
:1005C000FB680433184601F06FFEFB6893F828308F
:1005D00003F00403002B05D03A687968F868FFF748
:1005E000C5FF08E0FB6893F8283023F00103DAB276
:1005F000FB6883F82820FB681B6AF868984700BFEF
:100600001037BD4680BD00BF4800002080B584B0D3
:1006100000AF786007F10803184600F057F8F8605B
:10062000BB681946F86800F003F800F0D5F8F1E768
:1006300080B584B000AF7860396000F0FDFB07F151
:100640000803184600F066F8F860BB68002B30D14C
:100650003B68002B0AD17A68FB689A4206D800F002
:10066000F9FBF9687868FFF7A1FF24E03B68002BED
:1006700008D0134B1B681B68002B01D1012300E03D
:1006800000233B600F4B18687A68FB68D31A3A68FE
:10069000194602F015FF00F0DDFB0346002B0AD1DE
:1006A000094B4FF080521A60BFF34F8FBFF36F8F2B
:1006B00001E000F0CFFB00BF1037BD4680BD00BF9A
:1006C0004C0000205000002004ED00E080B485B014
:1006D00000AF78600E4B1B681B68002B01D1012214
:1006E00000E000227B681A607B681B68002B05D144
:1006F000074B1B68DB681B68FB6001E00023FB60A5
:10070000FB6818461437BD465DF8047B704700BF90
:100710004800002080B584B000AF786000F0A0FCF5
:10072000F8600B4B1B68FA689A4205D200F016F984
:100730007B6801221A6002E07B6800221A60044A8A
:10074000FB681360FB6818461037BD4680BD00BFCC
:100750005800002080B586B000AFF860B9607A60BC
:100760003B6000237B61FB68BA685A60FB68FA68EB
:100770001A61BA687B689A4212D87A683B68D21AC2
:10078000FB689B699A4202D301237B611BE0104BFB
:100790001A68FB6804331946104601F04BFD12E05D
:1007A0007A683B689A4206D2BA683B689A4202D39A
:1007B00001237B6107E0074B1A68FB680433194685
:1007C000104601F037FD7B6918461837BD4680BDDD
:1007D0004C0000204800002080B588B000AF07F131
:1007E000080300221A605A609A60A5E0BB68002BDB
:1007F000C0F2A2803B69FB61FB695B69002B04D0FE
:10080000FB690433184601F04FFD3B1D1846FFF706
:1008100081FFB861BB68013B082B00F28C8001A20C
:1008200052F823F04908000849080008B1080008F8
:10083000C50800080D090008490800084908000813
:10084000B1080008C5080008FB6993F8283043F098
:100850000103DAB2FB6983F82820FA68FB699B6917
:10086000D118FB68BA69F869FFF774FF0346002BDB
:1008700062D0FB6993F8283003F00403002B09D001
:10088000FA68FB699B691344BA691946F869FFF76E
:100890006DFE08E0FB6993F8283023F00103DAB21B
:1008A000FB6983F82820FB691B6AF869984743E0D5
:1008B000FB6993F8283023F00103DAB2FB6983F86F
:1008C000282039E0FB6993F8283043F00103DAB2BD
:1008D000FB6983F82820FA68FB699A61FB699B69C8
:1008E000002B09D14FF0500383F31188BFF36F8FB2
:1008F000BFF34F8F7B61FEE7FB699A69BB69D11833
:10090000BB69BA69F869FFF725FF15E0FB6993F841
:10091000283003F00203002B03D1F86902F01CFF1A
:100920000AE0FB6993F8283023F00103DAB2FB698F
:1009300083F8282000E000BF074B1B6807F108017F
:100940000022184602F070FA0346002B7FF44EAFE7
:1009500000BF2037BD4680BD5000002080B582B06A
:1009600000AF09E00E4B1B68DB681B687B604FF033
:10097000FF317868FFF71AFE094B1B681B68002BD4
:10098000F0D1074B1B683B60064B1B68044A1360A1
:10099000044A3B68136000BF0837BD4680BD00BFF6
:1009A000480000204C00002080B500AF01F08CFE14
:1009B000124B1B68002B1DD1114801F00DFC114892
:1009C00001F00AFC104B0E4A1A60104B0D4A1A60D7
:1009D00000220C210A2002F01FF80246074B1A6081
:1009E000064B1B68002B05D0044B1B6808491846B2
:1009F00002F018FD01F096FE00BF80BD50000020FF
:100A00002000002034000020480000204C0000207E
:100A1000583A000880B58AB004AFF860B9607A60CF
:100A20003B607B689B00184602F0E4FD38613B693F
:100A3000002B13D0582002F0DDFD78617B69002B7C
:100A400008D058220021786902F0AEFF7B693A692C
:100A50001A6305E0386902F07FFE01E000237B6144
:100A60007B69002B0DD0002303937B6902937B6A83
:100A700001933B6A00933B687A68B968F86800F0B4
:100A800029F87B6918461837BD4680BD80B588B007
:100A900002AFF860B9607A603B607B6A01933B6AA1
:100AA00000933B687A68B968F868FFF7B3FF38616C
:100AB0003B69002B05D0386900F098F801237B6171
:100AC00002E04FF0FF337B617B6918461837BD4663
:100AD00080BD00BF80B588B000AFF860B9607A60B3
:100AE0003B603B6B186B7B689B001A46A52102F0AC
:100AF0005BFF3B6B1A6B7B6803F18043013B9B0000
:100B00001344BB61BB6923F00703BB61BB6903F0FE
:100B10000703002B09D04FF0500383F31188BFF374
:100B20006F8FBFF34F8F3B61FEE7BB68002B1ED07A
:100B30000023FB6112E0BA68FB69134419783A6B31
:100B4000FB69134434330A461A70BA68FB691344CC
:100B50001B78002B06D0FB690133FB61FB69092B75
:100B6000E9D900E000BF3B6B002283F83D20BB6A5F
:100B7000042B09D94FF0500383F31188BFF36F8F13
:100B8000BFF34F8F7B61FEE7BB6A042B01D90423BF
:100B9000BB623B6BBA6ADA623B6BBA6A9A643B6BC4
:100BA0000433184601F038FB3B6B1833184601F04C
:100BB00033FB3B6B3A6B1A61BB6AC3F105023B6BBB
:100BC0009A613B6B3A6B5A623A68F968B86901F00E
:100BD0000DFC02463B6B1A60FB6A002B02D0FB6ADD
:100BE0003A6B1A6000BF2037BD4680BD80B584B027
:100BF00000AF786001F068FD414B1B680133404A4B
:100C00001360404B1B68002B09D13E4A7B68136080
:100C10003B4B1B68012B10D100F0C0FD0DE03A4B9F
:100C20001B68002B09D1374B1B68DA6A7B68DB6ACB
:100C30009A4202D8334A7B681360344B1B680133F5
:100C4000324A1360314B1A687B681A647B68DB6A2E
:100C500001229A402E4B1B6813432D4A13607B6878
:100C6000DA6A2C4913469B0013449B000B4404335F
:100C70001B68FB607B68FA689A60FB689A687B680F
:100C8000DA60FB689B687A6804325A607B681A1DD8
:100C9000FB689A607B68DA6A13469B0013449B00EA
:100CA0001C4A1A447B685A617B68DA6A7B68D96A95
:100CB00018480B469B000B449B0003441B68591CBF
:100CC000144813469B0013449B000344196001F031
:100CD00029FD0D4B1B68002B0ED00A4B1B68DA6AEE
:100CE0007B68DB6A9A4207D20B4B4FF080521A6046
:100CF000BFF34F8FBFF36F8F00BF1037BD4680BD6E
:100D0000340100205C000020400100205001002040
:100D10003C0100206000002004ED00E080B58AB0B6
:100D200002AF0123FB6100233B6100237B6111E0E3
:100D30001D4A7B69134419783A1D7B6913440A469E
:100D40001A703A1D7B6913441B78002B06D07B690F
:100D500001337B617B69092BEADD00E000BF0023E2
:100D6000BB6116E0114B3B61BB699B00104A134409
:100D7000391D01930023009300234FF480723869DA
:100D8000FFF784FEF861FB69002B06D0BB690133D5
:100D9000BB61BB69002BE5DD00E000BFFB691846C5
:100DA0002037BD4680BD00BF603A000869170008C3
:100DB0005801002080B584B000AFFFF7AFFFF860A6
:100DC000FB68012B02D1FFF79FFBF860FB68012B4A
:100DD00015D14FF0500383F31188BFF36F8FBFF32A
:100DE0004F8F7B60104B4FF0FF321A600F4B012288
:100DF0001A600F4B00221A6001F084FB0DE0FB68C3
:100E0000B3F1FF3F09D14FF0500383F31188BFF3D3
:100E10006F8FBFF34F8FBB60FEE7064B1B6800BFB1
:100E20001037BD4680BD00BF5401002040010020A6
:100E3000380100200000002080B400AF044B1B6884
:100E40000133034A136000BFBD465DF8047B704761
:100E50005C01002080B588B000AF0023FB61002357
:100E6000BB6101F031FC00233B61744B1B68002B1C
:100E700009D14FF0500383F31188BFF36F8FBFF395
:100E80004F8F3B60FEE76D4B1B68013B6B4A136065
:100E90006A4B1B68002B40F0CA80694B1B68002B13
:100EA00000F0C5808EE0674BDB68DB68FB61FB69A7
:100EB0009B6AFB60FB69DB69FA69126A9A60FB69ED
:100EC0001B6AFA69D2695A60FB685A68FB69183371
:100ED0009A4203D1FB691A6AFB685A60FB690022D7
:100EE0009A62FB681B685A1EFB681A60FB695B69A3
:100EF000BB60FB699B68FA69D2689A60FB69DB6832
:100F0000FA6992685A60BB685A68FB6904339A426E
:100F100003D1FB69DA68BB685A60FB6900225A6139
:100F2000BB681B685A1EBB681A60FB69DB6A01223A
:100F30009A40454B1B681343434A1360FB69DA6AC6
:100F4000424913469B0013449B000B4404331B6827
:100F50007B60FB697A689A607B689A68FB69DA60F3
:100F60007B689B68FA6904325A60FB691A1D7B68CA
:100F70009A60FB69DA6A13469B0013449B00334A6C
:100F80001A44FB695A61FB69DA6AFB69D96A2F481E
:100F90000B469B000B449B0003441B68591C2B48C9
:100FA00013469B0013449B0003441960FB69DA6AF3
:100FB000274B1B68DB6A9A4204D9264A3B69012108
:100FC00042F823101F4B1B68002B7FF46CAFFB69AA
:100FD000002B01D000F05EFC1F4B1B687B617B691E
:100FE000002B12D000F058F80346002B04D0194A09
:100FF0003B69012142F823107B69013B7B617B69DE
:10100000002BEFD1144B00221A60124A3B6952F8B0
:101010002330002B0BD00123BB610D4B1B680F4B02
:101020004FF080521A60BFF34F8FBFF36F8F01F004
:1010300079FBBB6918462037BD4680BD5C010020A6
:1010400034010020F40000203C010020600000205A
:101050005C000020480100204401002004ED00E075
:1010600080B483B000AF054B1B687B607B6818467B
:101070000C37BD465DF8047B704700BF3801002087
:1010800080B400AF034B1B681846BD465DF8047B77
:10109000704700BF3401002080B58AB000AF002344
:1010A0007B62824B1B68002B40F0F380804B1B68F7
:1010B00001333B627E4A3B6A13603B6A002B1FD1BF
:1010C0007C4B1B681B68002B09D04FF0500383F347
:1010D0001188BFF36F8FBFF34F8F7B60FEE7754BB7
:1010E0001B68FB61744B1B68724A1360724AFB6990
:1010F0001360724B1B680133704A136000F0CAFB27
:101100006F4B1B683A6A9A42C0F0A880694B1B6813
:101110001B68002B04D16A4B4FF0FF321A609DE030
:10112000644B1B68DB68DB68BB61BB695B687B6128
:101130003A6A7B699A4203D2614A7B6913608DE007
:10114000BB695B693B61BB699B68BA69D2689A609D
:10115000BB69DB68BA6992685A603B695A68BB69C7
:1011600004339A4203D1BB69DA683B695A60BB69B0
:1011700000225A613B691B685A1E3B691A60BB69B1
:101180009B6A002B1ED0BB699B6AFB60BB69DB6955
:10119000BA69126A9A60BB691B6ABA69D2695A60F5
:1011A000FB685A68BB6918339A4203D1BB691A6A53
:1011B000FB685A60BB6900229A62FB681B685A1E72
:1011C000FB681A60BB69DB6A01229A403D4B1B68D1
:1011D00013433C4A1360BB69DA6A3B4913469B00E0
:1011E00013449B000B4404331B68BB60BB69BA68A3
:1011F0009A60BB689A68BB69DA60BB689B68BA6929
:1012000004325A60BB691A1DBB689A60BB69DA6A0E
:1012100013469B0013449B002B4A1A44BB695A6136
:10122000BB69DA6ABB69D96A27480B469B000B4445
:101230009B0003441B68591C234813469B0013441E
:101240009B0003441960BB69DA6A204B1B68DB6AA8
:101250009A427FF65BAF01237B6257E71B4B1B680B
:10126000DA6A194913469B0013449B000B441B6820
:10127000012B01D901237B62154B1B68002B01D187
:10128000FFF73AF9134B1B68002B09D001237B624F
:1012900006E00F4B1B6801330D4A1360FFF72CF972
:1012A0007B6A18462837BD4680BD00BF5C01002020
:1012B00038010020EC000020F00000204C0100204C
:1012C000540100203C010020600000205C00002050
:1012D000440100204801002080B588B000AF3A4B9F
:1012E0001B68002B03D0394B01221A6067E0374B93
:1012F00000221A60364B1B681B6BFB614FF0A53355
:10130000BB61FB691A68BB699A4211D1FB6904335E
:101310001A68BB699A420BD1FB6908331A68BB692A
:101320009A4205D1FB690C331A68BB699A4209D00D
:10133000274B1B6834337B61254B1B687969184642
:10134000FFF7D4F8234B1B687B607B68B3FA83F309
:10135000FB70FB78C3F11F03FB601F49FA6813465B
:101360009B0013449B000B441B68002B09D14FF0DA
:10137000500383F31188BFF36F8FBFF34F8F3B612F
:10138000FEE7FA6813469B0013449B00124A13447D
:10139000BB60BB685B685A68BB685A60BB685A68C8
:1013A000BB6808339A4203D1BB68DA68BB685A60ED
:1013B000BB685B68DB68064A1360054B1B6800BFAF
:1013C0002037BD4680BD00BF5C01002048010020E1
:1013D0005C0000203C0100206000002080B584B04B
:1013E00000AF786039607B68002B09D14FF0500363
:1013F00083F31188BFF36F8FBFF34F8FFB60FEE75E
:10140000074B1B6818331946786800F013FF012159
:10141000386800F08DFC00BF1037BD4680BD00BFAE
:101420005C00002080B586B000AFF860B9607A60DB
:10143000FB68002B09D14FF0500383F31188BFF3F1
:101440006F8FBFF34F8F3B61FEE7FB685B687B618B
:10145000154B1B687A69DA61134B1B687A699268CD
:101460001A627B699B68104A126818325A600E4BE8
:101470001B6803F118027B699A600B4B1B68FA68C2
:101480009A62FB681B685A1CFB681A607B68002B19
:1014900002D04FF0FF33BB607968B86800F048FCB9
:1014A00000BF1837BD4680BD5C00002080B48BB003
:1014B00000AF78607B68DB68DB683B623B6A002BCF
:1014C00009D14FF0500383F31188BFF36F8FBFF33F
:1014D0004F8FFB60FEE73B6A9B6AFB613B6ADB69FF
:1014E0003A6A126A9A603B6A1B6A3A6AD2695A601F
:1014F000FB695A683B6A18339A4203D13B6A1A6AFD
:10150000FB695A603B6A00229A62FB691B685A1E9B
:10151000FB691A604B4B1B68002B60D13B6A5B690F
:10152000BB613B6A9B683A6AD2689A603B6ADB6837
:101530003A6A92685A60BB695A683B6A04339A42B5
:1015400003D13B6ADA68BB695A603B6A00225A6180
:10155000BB691B685A1EBB691A603B6ADB6A0122C1
:101560009A40394B1B681343374A13603B6ADA6A67
:10157000364913469B0013449B000B4404331B68FD
:101580007B613B6A7A699A607B699A683B6ADA6038
:101590007B699B683A6A04325A603B6A1A1D7B6910
:1015A0009A603B6ADA6A13469B0013449B00274A01
:1015B0001A443B6A5A613B6ADA6A3B6AD96A234831
:1015C0000B469B000B449B0003441B68591C1F489F
:1015D00013469B0013449B00034419601BE01C4B03
:1015E0005B683B613B6A3A69DA613B699A683B6ACE
:1015F0001A623B699B683A6A18325A603B6A03F187
:1016000018023B699A603B6A114A9A62104B1B6848
:1016100001330F4A13603B6ADA6A0E4B1B68DB6AC0
:101620009A4205D901237B620B4B01221A6001E02B
:1016300000237B627B6A18462C37BD465DF8047B2D
:10164000704700BF5C0100203C01002060000020CA
:10165000F40000205C0000204801002080B483B02A
:1016600000AF7860064B1A687B681A60054B1A68F1
:101670007B685A6000BF0C37BD465DF8047B70473D
:101680004C0100203801002080B588B000AF7860A0
:1016900039607B68002B09D14FF0500383F3118828
:1016A000BFF36F8FBFF34F8FFB60FEE73B68002BEC
:1016B00009D14FF0500383F31188BFF36F8FBFF34D
:1016C0004F8F3B61FEE700F0FFFF1F4B1B68BB61C4
:1016D0007B685B68BA69D31A7B613B681B68B3F1AE
:1016E000FF3F02D10023FB6126E07B681A68174B9D
:1016F0001B689A420AD07B685A68BB699A4205D82F
:101700000123FB613B6800221A6015E03B681A6800
:101710007B699A420BD93B681A687B69D21A3B688D
:101720001A607868FFF79AFF0023FB6104E03B68CA
:1017300000221A600123FB6100F0F4FFFB691846E8
:101740002037BD4680BD00BF380100204C0100207D
:1017500080B400AF034B01221A6000BFBD465DF8A4
:10176000047B70474801002080B582B000AF7860EC
:1017700000F054F8074B1B68012B07D9064B4FF0BC
:1017800080521A60BFF34F8FBFF36F8FFEF7A2FE38
:10179000EEE700BF6000002004ED00E080B582B0FD
:1017A00000AF00237B600CE07A6813469B00134473
:1017B0009B00124A1344184600F00EFD7B6801336B
:1017C0007B607B68042BEFD90D4800F005FD0D48C8
:1017D00000F002FD0C4800F0FFFC0C4800F0FCFC9F
:1017E0000B4800F0F9FC0B4B054A1A600A4B054AFE
:1017F0001A6000BF0837BD4680BD00BF60000020F2
:10180000C4000020D8000020F400002008010020BF
:1018100020010020EC000020F000002080B582B004
:1018200000AF19E000F050FF0F4BDB68DB687B6016
:101830007B680433184600F037FD0C4B1B68013BF6
:101840000A4A13600A4B1B68013B094A136000F007
:1018500069FF786800F00EF8054B1B68002BE1D19A
:1018600000BF0837BD4680BD0801002034010020BC
:101870001C01002080B582B000AF78607B681B6BD4
:10188000184601F069FF786801F066FF00BF08376D
:10189000BD4680BD80B400AF0A4B1B681B68002B9F
:1018A00004D1094B4FF0FF321A6005E0054B1B686D
:1018B000DB681B68044A136000BFBD465DF8047B0B
:1018C000704700BFEC0000205401002080B483B0BA
:1018D00000AF0B4B1B68002B02D101237B6008E09B
:1018E000084B1B68002B02D102237B6001E0002320
:1018F0007B607B6818460C37BD465DF8047B7047FB
:10190000400100205C01002080B586B000AF786007
:101910007B683B6100237B617B68002B00F0898042
:101920003B69DA6A454B1B68DB6A9A4278D23B69AD
:101930009B69002B06DB414B1B68DB6AC3F1050288
:101940003B699A613B6959693B69DA6A13469B00B6
:1019500013449B003A4A1344994259D13B690433DA
:10196000184600F0A1FC0346002B0AD13B69DB6A54
:10197000012202FA03F3DA43324B1B681340314A67
:1019800013602E4B1B68DA6A3B69DA623B69DB6ADB
:1019900001229A402B4B1B6813432A4A13603B6970
:1019A000DA6A274913469B0013449B000B44043317
:1019B0001B68FB603B69FA689A60FB689A683B6940
:1019C000DA60FB689B683A6904325A603B691A1D09
:1019D000FB689A603B69DA6A13469B0013449B00DC
:1019E000174A1A443B695A613B69DA6A3B69D96A0A
:1019F00013480B469B000B449B0003441B68591C77
:101A00000F4813469B0013449B000344196004E0F5
:101A10000A4B1B68DA6A3B69DA6201237B6108E0E2
:101A20003B699A6C054B1B68DB6A9A4201D2012321
:101A30007B617B6918461837BD4680BD5C0000207D
:101A4000600000203C01002080B588B000AF7860C5
:101A50007B68BB610023FB617B68002B00F08C80FE
:101A6000484B1B68BA699A4209D04FF0500383F380
:101A70001188BFF36F8FBFF34F8FFB60FEE7BB6929
:101A8000DB6C002B09D14FF0500383F31188BFF3B7
:101A90006F8FBFF34F8F3B61FEE7BB69DB6C5A1E54
:101AA000BB69DA64BB69DA6ABB699B6C9A4263D032
:101AB000BB69DB6C002B5FD1BB690433184600F0B7
:101AC000F3FB0346002B0AD1BB69DB6A012202FA51
:101AD00003F3DA432C4B1B6813402B4A1360BB699A
:101AE0009A6CBB69DA62BB69DB6AC3F10502BB6948
:101AF0009A61BB69DB6A01229A40234B1B6813433E
:101B0000214A1360BB69DA6A204913469B001344DB
:101B10009B000B4404331B687B61BB697A699A6044
:101B20007B699A68BB69DA607B699B68BA69043231
:101B30005A60BB691A1D7B699A60BB69DA6A1346F1
:101B40009B0013449B00114A1A44BB695A61BB694C
:101B5000DA6ABB69D96A0D480B469B000B449B00AF
:101B600003441B68591C094813469B0013449B00FF
:101B7000034419600123FB61FB6918462037BD4609
:101B800080BD00BF5C0000203C0100206000002000
:101B900080B58AB000AF786039607B683B62012312
:101BA000FB617B68002B00F0A1803B6ADB6C002BA3
:101BB00009D14FF0500383F31188BFF36F8FBFF348
:101BC0004F8FFB60FEE73B6A9A6C3B689A4202D2F9
:101BD0003B687B6202E03B6A9B6C7B623B6ADA6A31
:101BE0007B6A9A4200F082803B6ADA6CFB699A4217
:101BF0007CD1404B1B683A6A9A4209D14FF050039E
:101C000083F31188BFF36F8FBFF34F8F3B61FEE704
:101C10003B6ADB6ABB613B6A7A6ADA623B6A9B6950
:101C2000002B04DB7B6AC3F105023B6A9A613B6AC5
:101C30005969BA6913469B0013449B002E4A13440A
:101C4000994253D13B6A0433184600F02DFB0346FA
:101C5000002B0AD13B6ADB6A012202FA03F3DA4362
:101C6000264B1B681340254A13603B6ADB6A01223E
:101C70009A40224B1B681343204A13603B6ADA6A7E
:101C80001D4913469B0013449B000B4404331B68FF
:101C90007B613B6A7A699A607B699A683B6ADA6021
:101CA0007B699B683A6A04325A603B6A1A1D7B69F9
:101CB0009A603B6ADA6A13469B0013449B000E4A03
:101CC0001A443B6A5A613B6ADA6A3B6AD96A0A4833
:101CD0000B469B000B449B0003441B68591C0648A1
:101CE00013469B0013449B000344196000BF283730
:101CF000BD4680BD5C000020600000203C0100204B
:101D000080B483B000AF094B1B687B607B68002BFD
:101D100004D07B68DB6C5A1C7B68DA647B681846ED
:101D20000C37BD465DF8047B704700BF5C000020A7
:101D300080B588B000AF78603960374B1B68FB61B5
:101D4000364B1B68BB61364B1B687B61354B1B6890
:101D50000433184600F0A8FA0346002B0BD1314B90
:101D60001B68DB6A012202FA03F3DA432E4B1B687D
:101D700013402D4A13607B68B3F1FF3F24D13B68C9
:101D8000002B21D0294B5B683B61264B1B683A69CD
:101D90009A60244B1B683A699268DA603B699B68D9
:101DA000204A126804325A601E4B1B681A1D3B6998
:101DB0009A601C4B1B681D4A5A611C4B1B680133FF
:101DC0001A4A136000BF22E0FA697B681344FB6083
:101DD000144B1B68FA685A60FA68FB699A4207D28A
:101DE000104B1B6804331946786900F023FA0EE0A3
:101DF0000C4B1B6804331946B86900F01BFA0C4BF6
:101E00001B68FA689A4202D2094AFB68136000BF55
:101E10002037BD4680BD00BF38010020EC00002007
:101E2000F00000205C0000203C0100202001002088
:101E30005401002080B485B000AF78600023FB60BF
:101E4000764BFB607B689B79002B00F0C8807B6839
:101E50001B685B0903F1007303F502635B0118461D
:101E60007B681B685B0903F1007303F502635B0188
:101E70001A687B681B6803F01F03012101FA03F352
:101E8000DB43134003607B681B685B095A01644BAA
:101E9000134418467B681B685B095A01604B134466
:101EA0001A687B681B6803F01F03012101FA03F322
:101EB000DB43134003607B681B791A467B681B6811
:101EC0005B095B011344FA681344FB60FB68FA6822
:101ED00012687968096801F01F01012000FA01F118
:101EE0000A431A604D4BFB607B681B685B095A0113
:101EF0004C4B134418467B681B685B095A01494BDD
:101F000013441A687B681B6803F01F03012101FA60
:101F100003F3DB43134003607B681B685B095A01D2
:101F2000414B134418467B681B685B095A013E4BC2
:101F300013441A687B681B6803F01F03012101FA30
:101F400003F3DB43134003607B685B79102B2ED1D6
:101F50007B681B685B095A01324B134418467B6847
:101F60001B685B095A012F4B13441B687A6812687F
:101F700002F01F02012101FA02F2134303607B68A1
:101F80001B685B095A01284B134418467B681B6881
:101F90005B095A01244B13441B687A68126802F0EB
:101FA0001F02012101FA02F2134303602FE07B6854
:101FB0005B791A467B681B685B095B011344FA680E
:101FC0001344FB60FB68FA6812687968096801F0DD
:101FD0001F01012000FA01F10A431A6017E07B6833
:101FE0001B791A467B681B685B095B011344FA681E
:101FF0001344FB60FB68FA6811687A68126802F0A3
:102000001F02012000FA02F2D2430A401A6000BF08
:102010001437BD465DF8047B704700BF00040140E3
:1020200004040140080401400C04014080B483B062
:1020300000AF78607B685B095A01084B134419466E
:102040007B6803F01F03012202FA03F30B6000BF59
:102050000C37BD465DF8047B704700BF1404014097
:1020600080B500AF1F4A1F4BD3F8883043F470038C
:10207000C2F888301C4A1C4B1B6843F001031360F4
:102080001949194B5A68194B13404B60164A164BA5
:102090001B6823F0847323F480331360124A124BBD
:1020A0001B6823F4802313600F4A0F4B5B6823F4F3
:1020B000FE0353600C4A0C4BDB6A23F00F03D36220
:1020C0000949094B1A6B0A4B13400B63064B00225C
:1020D0009A6000F00FF8034B4FF000629A6000BF67
:1020E00080BD00BF00ED00E0001002400CC07FF892
:1020F000CCFC00FF80B483B000AF00237B600023E2
:102100003B60334A324B1B6843F480331360304BDF
:102110001B6803F400333B607B6801337B603B68E2
:10212000002B03D17B68B3F5A06FF0D1284B1B685F
:1021300003F40033002B02D001233B6001E00023B5
:102140003B603B68012B3CD1224B12221A60204A93
:102150001F4B5B6853601E4A1D4B5B6853601C4AF3
:102160001B4B5B6843F480635360194A184B5B68F0
:1021700023F47C135360164A154B5B6843F4E81351
:102180005360134A124B1B6843F08073136000BF07
:102190000F4B1B6803F00073002BF9D00C4A0C4B5B
:1021A0005B6823F003035360094A094B5B6843F003
:1021B0000203536000BF064B5B6803F00C03082B5F
:1021C000F9D100BF0C37BD465DF8047B704700BFF6
:1021D000001002400020024080B483B000AF78605D
:1021E0007B6803F108027B685A607B684FF0FF321E
:1021F0009A607B6803F108027B68DA607B6803F110
:1022000008027B681A617B6800221A6000BF0C37E5
:10221000BD465DF8047B704780B483B000AF786042
:102220007B6800221A6100BF0C37BD465DF8047B55
:10223000704700BF80B485B000AF786039603B68FC
:102240001B68BB60BB68B3F1FF3F03D17B681B69B0
:10225000FB600CE07B680833FB6002E0FB685B68B6
:10226000FB60FB685B681A68BB689A42F6D9FB683A
:102270005A683B685A603B685B683A689A603B689A
:10228000FA689A60FB683A685A603B687A681A6133
:102290007B681B685A1C7B681A6000BF1437BD46F8
:1022A0005DF8047B704700BF80B485B000AF7860F4
:1022B0007B681B69FB607B685B687A6892689A60E0
:1022C0007B689B687A6852685A60FB685A687B68CA
:1022D0009A4203D17B689A68FB685A607B68002247
:1022E0001A61FB681B685A1EFB681A60FB681B6852
:1022F00018461437BD465DF8047B704780B483B040
:1023000000AF7860064A7B6843F0BF6343F4003354
:10231000D36000BF0C37BD465DF8047B704700BF3B
:1023200000ED00E080B487B000AF786000237B61EF
:1023300000233B610F23FB607B68DB78002B3AD0E6
:10234000284BDB68DB4303F4E0631B0A7B617B699A
:10235000C3F104033B61FA687B6922FA03F3FB6073
:102360007B685B781A463B6902FA03F37B617B6802
:102370009B781A46FB6813407A6913437B617B693B
:102380001B017B61184A7B681B787969C9B21344C9
:102390000A4683F80023144A7B681B785B09DBB28A
:1023A00018467B681B7803F01F03012101FA03F331
:1023B00042F820300FE00C497B681B785B09DBB2E8
:1023C00018467B681B7803F01F0301229A4000F136
:1023D000200341F8232000BF1C37BD465DF8047B75
:1023E000704700BF00ED00E000E100E080B485B080
:1023F00000AFF860B9607A60FB68043BFB60FB6883
:102400004FF080721A60FB68043BFB60BB6823F0EE
:102410000102FB681A60FB68043BFB600C4AFB6826
:102420001A60FB68143BFB607A68FB681A60FB6803
:10243000043BFB60FB686FF002021A60FB68203B04
:10244000FB60FB6818461437BD465DF8047B704797
:102450005524000880B485B000AF00237B60114B89
:102460001B68B3F1FF3F09D04FF0500383F311888D
:10247000BFF36F8FBFF34F8FBB60FEE74FF050038A
:1024800083F31188BFF36F8FBFF34F8FFB6000BFE3
:102490007B68002BFCD000BF1437BD465DF8047B81
:1024A000704700BF1800002000000000000000007E
:1024B000074B19680868B0E8F04F80F30988BFF34C
:1024C0006F8F4FF0000080F311887047AFF30080EA
:1024D0005C00002000BF00BF08480068006880F36F
:1024E00008884FF0000080F3148862B661B6BFF32D
:1024F0004F8FBFF36F8F00DF00BF000008ED00E0DB
:1025000000BF00BF80B58CB000AF624B1B68624A51
:10251000934209D14FF0500383F31188BFF36F8FBB
:10252000BFF34F8F3B61FEE75A4B1B685B4A9342F8
:1025300009D14FF0500383F31188BFF36F8FBFF3BE
:102540004F8F7B61FEE7564B1B68FB62FB6A2C33A7
:102550001B68544A934209D04FF0500383F311880B
:10256000BFF36F8FBFF34F8FBB61FEE7FB6A38335A
:102570001B684D4A934209D04FF0500383F31188F2
:10258000BFF36F8FBFF34F8FFB61FEE70023BB608C
:10259000464BBB62BB6A1B78DBB2FB73BB6AFF2294
:1025A0001A70BB6A1B78DBB2FB71FB79DBB203F0FC
:1025B0005003DAB23E4B1A703D4B1B78002B09D109
:1025C0004FF0500383F31188BFF36F8FBFF34F8F2A
:1025D0003B62FEE7FB79DBB2DB4303F05003002BE9
:1025E00011D04FF0500383F31188BFF36F8FBFF307
:1025F0004F8F7B62FEE7BB680133BB60FB79DBB2C8
:102600005B00DBB2FB71FB79DBB25BB2002BF2DB70
:10261000BB68082B03D1274B00221A6004E0BB687B
:10262000C3F10703234A1360224B1B681B02214A94
:102630001360204B1B6803F4E0631E4A1360FB7BAE
:10264000DAB2BB6A1A701C4A1B4B1B6843F47F0347
:102650001360194A184B1B6843F07F431360174BF4
:1026600000221A6000F0E0F8154B00221A6000F01A
:10267000FFF8144A134B1B6843F040431360FFF705
:102680002BFFFEF729FEFFF7E5FE00231846303743
:10269000BD4680BD00ED00E071C20F4170C20F4128
:1026A00008ED00E0B12400088127000800E400E004
:1026B000600100206401002020ED00E01CED00E03E
:1026C0001800002034EF00E080B483B000AF4FF07A
:1026D000500383F31188BFF36F8FBFF34F8F3B60BD
:1026E0000E4B1B6801330D4A13600C4B1B68012B0A
:1026F0000ED10B4B1B68DBB2002B09D04FF05003FF
:1027000083F31188BFF36F8FBFF34F8F7B60FEE7BA
:1027100000BF0C37BD465DF8047B704718000020F1
:1027200004ED00E080B483B000AF114B1B68002BB8
:1027300009D14FF0500383F31188BFF36F8FBFF3BC
:102740004F8F3B60FEE70A4B1B68013B084A136052
:10275000074B1B68002B04D100237B607B6883F34D
:10276000118800BF0C37BD465DF8047B704700BF81
:102770001800002000000000000000000000000021
:10278000EFF30980BFF36F8F154B1A681EF0100F1F
:1027900008BF20ED108A20E9F04F10602DE90900F4
:1027A0004FF0500080F31188BFF34F8FBFF36F8F4E
:1027B000FEF792FD4FF0000080F3118809BC196804
:1027C0000868B0E8F04F1EF0100F08BFB0EC108A98
:1027D00080F30988BFF36F8F704700BFAFF30080AD
:1027E0005C00002000BF00BF80B582B000AF4FF09A
:1027F000500383F31188BFF36F8FBFF34F8F3B609C
:10280000FEF74AFC0346002B03D0064B4FF08052E4
:102810001A6000237B607B6883F3118800BF083750
:10282000BD4680BD04ED00E080B400AF0B4B00223C
:102830001A600B4B00221A600A4A0B4B1B680B49AB
:10284000A1FB03139B09013B1360044B07221A6091
:1028500000BFBD465DF8047B704700BF10E000E09C
:1028600018E000E014E000E004000020D34D621006
:10287000DFF80C00016841F470010160704700004E
:1028800088ED00E000BF00BF80B485B000AFEFF37B
:102890000583FB60FB680F2B13D9164AFB681344B2
:1028A0001B78FB72144B1B78FA7A9A4209D24FF0CC
:1028B000500383F31188BFF36F8FBFF34F8F3B60DB
:1028C000FEE70E4B1B6803F4E0620D4B1B689A4257
:1028D00009D94FF0500383F31188BFF36F8FBFF313
:1028E0004F8F7B60FEE700BF1437BD465DF8047B69
:1028F000704700BFF0E300E0600100200CED00E055
:102900006401002080B586B000AF78603960012393
:102910007B617B683B613B69002B09D14FF0500321
:1029200083F31188BFF36F8FBFF34F8FBB60FEE758
:102930003B69002B5AD03B69DB6B002B56D03B69BF
:10294000DB6B4FF0FF32B2FBF3F23B691B6C9A4238
:102950004CD3FFF7B9FE3B691A683B69DB6B3969F9
:10296000096C01FB03F31A443B699A603B6900223E
:102970009A633B691A683B695A603B691A683B690C
:10298000DB6B013B3969096C01FB03F31A443B69BA
:10299000DA603B69FF2283F844203B69FF2283F819
:1029A00045203B68002B14D13B691B69002B1AD0D2
:1029B0003B6910331846FEF779FD0346002B12D011
:1029C000144B4FF080521A60BFF34F8FBFF36F8FDD
:1029D00009E03B6910331846FFF7FEFB3B692433DF
:1029E0001846FFF7F9FBFFF79DFE01E000237B612E
:1029F0007B69002B09D14FF0500383F31188BFF39B
:102A00006F8FBFF34F8FFB60FEE77B691846183767
:102A1000BD4680BD04ED00E080B58AB002AFF8602D
:102A2000B9601346FB710023FB61FB68002B2BD0C0
:102A30004FF0FF32FB68B2FBF3F2BB689A4223D33C
:102A4000FB68BA6802FB03F313F1510F1CD8FB6853
:102A5000BA6802FB03F3BB61BB695033184600F050
:102A6000C9FDF861FB69002B1BD0FB697B617B69A9
:102A700050337B61FA79FB69009313467A69B96830
:102A8000F86800F013F80CE0FB69002B09D14FF057
:102A9000500383F31188BFF36F8FBFF34F8F3B61F8
:102AA000FEE7FB6918462037BD4680BD80B584B07F
:102AB00000AFF860B9607A60FB70BB68002B03D18F
:102AC000BB69BA691A6002E0BB697A681A60BB69BF
:102AD000FA68DA63BB69BA681A640121B869FFF75A
:102AE00011FFBB69FA7883F84C2000BF1037BD4650
:102AF00080BD00BF80B58EB000AFF860B9607A606D
:102B00003B6000237B63FB683B633B6B002B09D17D
:102B10004FF0500383F31188BFF36F8FBFF34F8FD4
:102B2000FB61FEE7BB68002B03D13B6B1B6C002BEA
:102B300001D1012300E00023002B09D14FF0500305
:102B400083F31188BFF36F8FBFF34F8F3B62FEE7B4
:102B50003B68022B03D13B6BDB6B012B01D10123C3
:102B600000E00023002B09D14FF0500383F31188BC
:102B7000BFF36F8FBFF34F8F7B62FEE7FEF7A6FEBA
:102B80000346002B02D17B68002B01D1012300E01A
:102B90000023002B09D14FF0500383F31188BFF3BA
:102BA0006F8FBFF34F8FBB62FEE7FFF78DFD3B6B6F
:102BB0009A6B3B6BDB6B9A4202D33B68022B29D1A9
:102BC0003A68B968386B00F01DFBF8623B6B5B6AD2
:102BD000002B10D03B6B24331846FEF767FC0346EE
:102BE000002B13D03F4B4FF080521A60BFF34F8F32
:102BF000BFF36F8F0AE0FB6A002B07D0394B4FF011
:102C000080521A60BFF34F8FBFF36F8FFFF78AFDBB
:102C1000012363E07B68002B03D1FFF783FD0023D2
:102C20005CE07B6B002B06D107F114031846FEF71E
:102C300015FD01237B63FFF775FDFEF7FDF8FFF738
:102C400043FD3B6B93F844305BB2B3F1FF3F03D1DC
:102C50003B6B002283F844203B6B93F845305BB21A
:102C6000B3F1FF3F03D13B6B002283F84520FFF710
:102C700059FD3A1D07F1140311461846FEF704FDED
:102C80000346002B24D1386B00F0B4FB0346002B25
:102C900018D03B6B10337A6811461846FEF79EFB3E
:102CA000386B00F03FFBFEF7D5F80346002B7FF4AE
:102CB0007CAF0C4B4FF080521A60BFF34F8FBFF3C5
:102CC0006F8F72E7386B00F02DFBFEF7C3F86CE7EF
:102CD000386B00F027FBFEF7BDF8002318463837A5
:102CE000BD4680BD04ED00E080B590B000AF7860D7
:102CF00039607B68BB63BB6B002B09D14FF050037D
:102D000083F31188BFF36F8FBFF34F8F3B61FEE7F3
:102D1000BB6B1B6C002B09D04FF0500383F3118861
:102D2000BFF36F8FBFF34F8F7B61FEE7BB6B1B68F9
:102D3000002B03D1BB6B9B68002B01D1012300E06A
:102D40000023002B09D14FF0500383F31188BFF308
:102D50006F8FBFF34F8FBB61FEE7FFF795FDEFF37A
:102D600011824FF0500383F31188BFF36F8FBFF3CD
:102D70004F8FFA61FB60FB693B63BB6B9B6BFB6234
:102D8000BB6BDA6BFB6A9A4241D9BB6B93F8453057
:102D900087F82B30FB6A5A1CBB6B9A6397F92B3070
:102DA000B3F1FF3F12D1BB6B5B6A002B2CD0BB6B26
:102DB00024331846FEF77AFB0346002B24D03B68E9
:102DC000002B21D03B6801221A601DE0FEF758F964
:102DD000786297F92B207B6A9A4215D297F92B30AB
:102DE0007F2B09D14FF0500383F31188BFF36F8F0E
:102DF000BFF34F8F7B63FEE797F82B300133DBB2D5
:102E00005AB2BB6B83F845200123FB6301E000232A
:102E1000FB633B6B3B623B6A83F31188FB6B184699
:102E20004037BD4680BD00BF80B58CB000AFF860B4
:102E3000B9607A600023FB62FB68BB62BB6A002B4F
:102E400009D14FF0500383F31188BFF36F8FBFF3A5
:102E50004F8FBB61FEE7BB68002B03D1BB6A1B6CC5
:102E6000002B01D1012300E00023002B09D14FF0FA
:102E7000500383F31188BFF36F8FBFF34F8FFB6154
:102E8000FEE7FEF723FD0346002B02D17B68002BF3
:102E900001D1012300E00023002B09D14FF05003A2
:102EA00083F31188BFF36F8FBFF34F8F3B62FEE751
:102EB000FFF70AFCBB6A9B6B7B627B6A002B1FD00F
:102EC000B968B86A00F008FA7B6A5A1EBB6A9A634E
:102ED000BB6A1B69002B0FD0BB6A10331846FEF784
:102EE000E5FA0346002B07D03C4B4FF080521A60A6
:102EF000BFF34F8FBFF36F8FFFF714FC012369E01F
:102F00007B68002B03D1FFF70DFC002362E0FB6A16
:102F1000002B06D107F110031846FEF79FFB012393
:102F2000FB62FFF7FFFBFDF787FFFFF7CDFBBB6AF7
:102F300093F844305BB2B3F1FF3F03D1BB6A002288
:102F400083F84420BB6A93F845305BB2B3F1FF3F8E
:102F500003D1BB6A002283F84520FFF7E3FB3A1D4B
:102F600007F1100311461846FEF78EFB0346002BAF
:102F700023D1B86A00F028FA0346002B17D0BB6AA9
:102F800024337A6811461846FEF728FAB86A00F02A
:102F9000C9F9FDF75FFF0346002B89D10F4B4FF0B6
:102FA00080521A60BFF34F8FBFF36F8F80E7B86A0C
:102FB00000F0B8F9FDF74EFF7AE7B86A00F0B2F911
:102FC000FDF748FFB86A00F0FFF90346002B3FF415
:102FD0006FAF002318463037BD4680BD04ED00E0DA
:102FE00080B58CB000AF786039600023FB627B68ED
:102FF0007B620023BB627B6A002B09D14FF0500338
:1030000083F31188BFF36F8FBFF34F8F3B61FEE7F0
:103010007B6A1B6C002B09D04FF0500383F311889F
:10302000BFF36F8FBFF34F8F7B61FEE7FEF74EFC60
:103030000346002B02D13B68002B01D1012300E0A5
:103040000023002B09D14FF0500383F31188BFF305
:103050006F8FBFF34F8FBB61FEE7FFF735FB7B6AD6
:103060009B6B3B623B6A002B24D03B6A5A1E7B6AF7
:103070009A637B6A1B68002B04D1FEF741FE02466F
:103080007B6A9A607B6A1B69002B0FD07B6A1033C6
:103090001846FEF70BFA0346002B07D04C4B4FF0B7
:1030A00080521A60BFF34F8FBFF36F8FFFF73AFB69
:1030B000012389E03B68002B03D1FFF733FB00239A
:1030C00082E0FB6A002B06D107F108031846FEF7E1
:1030D000C5FA0123FB62FFF725FBFDF7ADFEFFF705
:1030E000F3FA7B6A93F844305BB2B3F1FF3F03D14C
:1030F0007B6A002283F844207B6A93F845305BB2F8
:10310000B3F1FF3F03D17B6A002283F84520FFF72C
:1031100009FB3A4607F1080311461846FEF7B4FAD0
:103120000346002B32D1786A00F04EF90346002B9B
:1031300026D07B6A1B68002B09D1FFF7C5FA7B6A92
:103140009B681846FEF7E0FBB862FFF7EBFA7B6A74
:1031500024333A6811461846FEF740F9786A00F0C1
:10316000E1F8FDF777FE0346002B7FF476AF184BAE
:103170004FF080521A60BFF34F8FBFF36F8F6CE731
:10318000786A00F0CFF8FDF765FE66E7786A00F030
:10319000C9F8FDF75FFE786A00F016F90346002BC8
:1031A0003FF45BAFBB6A002B0DD0FFF78DFA786A56
:1031B00000F010F8F8617B6A9B68F9691846FEF721
:1031C000E7FCFFF7AFFA002318463037BD4680BD55
:1031D00004ED00E080B485B000AF78607B685B6A86
:1031E000002B06D07B681B6B1B68C3F10503FB60DB
:1031F00001E00023FB60FB6818461437BD465DF80C
:10320000047B704780B586B000AFF860B9607A6023
:1032100000237B61FB689B6B3B61FB681B6C002B95
:103220000DD1FB681B68002B4DD1FB689B681846CD
:10323000FEF70AFC7861FB6800229A6043E07B6835
:10324000002B19D1FB685868FB681B6C1A46B968DB
:1032500000F010FBFB685A68FB681B6C1A44FB68A3
:103260005A60FB685A68FB689B689A422BD3FB68DC
:103270001A68FB685A6026E0FB68D868FB681B6C1C
:103280001A46B96800F0F6FAFB68DA68FB681B6C4E
:103290005B421A44FB68DA60FB68DA68FB681B680B
:1032A0009A4207D2FB689A68FB681B6C5B421A441F
:1032B000FB68DA607B68022B05D13B69002B02D0EA
:1032C0003B69013B3B613B695A1CFB689A637B6924
:1032D00018461837BD4680BD80B582B000AF786013
:1032E00039607B681B6C002B18D07B68DA687B68C0
:1032F0001B6C1A447B68DA607B68DA687B689B68C1
:103300009A4203D37B681A687B68DA607B68D96865
:103310007B681B6C1A46386800F0ACFA00BF0837AF
:10332000BD4680BD80B584B000AF7860FFF7CCF9B2
:103330007B6893F84530FB7311E07B685B6A002B78
:1033400012D07B6824331846FEF7B0F80346002BF2
:1033500001D0FEF7FDF9FB7B013BDBB2FB7397F974
:103360000F30002BE9DC00E000BF7B68FF2283F810
:103370004520FFF7D7F9FFF7A7F97B6893F84430AA
:10338000BB7311E07B681B69002B12D07B68103384
:103390001846FEF78BF80346002B01D0FEF7D8F94C
:1033A000BB7B013BDBB2BB7397F90E30002BE9DC32
:1033B00000E000BF7B68FF2283F84420FFF7B2F9EA
:1033C00000BF1037BD4680BD80B584B000AF7860C7
:1033D000FFF77AF97B689B6B002B02D10123FB601E
:1033E00001E00023FB60FFF79DF9FB6818461037EA
:1033F000BD4680BD80B584B000AF7860FFF764F94A
:103400007B689A6B7B68DB6B9A4202D10123FB607D
:1034100001E00023FB60FFF785F9FB6818461037D1
:10342000BD4680BD80B487B000AF786039600023AE
:103430003B617B68002B09D14FF0500383F3118867
:10344000BFF36F8FBFF34F8FFB60FEE73B68002B2E
:1034500024D000237B611EE0184A7B69DB00134403
:103460005A687B689A4205D17B69DB00134A134492
:103470003B6113E03B69002B0AD1104A7B6952F88B
:103480003330002B04D17B69DB000C4A13443B61D1
:103490007B6901337B617B69072BDDD93B69002B9D
:1034A00005D03B693A681A603B697A685A6000BF88
:1034B0001C37BD465DF8047B704700BF803D00208F
:1034C00080B586B000AFF860B9607A60FB687B6158
:1034D000FFF7FAF87B6993F844305BB2B3F1FF3F32
:1034E00003D17B69002283F844207B6993F845303F
:1034F0005BB2B3F1FF3F03D17B69002283F8452023
:10350000FFF710F97B699B6B002B06D17B69243395
:103510007A68B9681846FDF785FF7869FFF702FFFA
:1035200000BF1837BD4680BD002103E00A4B5B5841
:103530004350043109480A4B42189A42F6D3094ACB
:1035400002E0002342F8043B074B9A42F9D3FEF70E
:1035500087FDFCF78BFF7047653A000800000020EC
:103560002000002020000020C03D0020FEE70000D9
:1035700090B484B000AF03460A46FB711346BB719A
:103580000023FB60BB7903F003039B000F2202FAC8
:1035900003F3FB601649BB799B08DBB21846144A5B
:1035A000BB799B08DBB2023352F82320FB68DB4374
:1035B0001A40831C41F823200D48BB799B08DBB2DD
:1035C0001C460B4ABB799B08DBB2023352F823201E
:1035D000F979BB7903F003039B0001FA03F31A4363
:1035E000A31C40F8232000BF1037BD4690BC704795
:1035F0000000014080B58AB000AF78600023FB6115
:103600007B68002B22D00823DA437B689A421BD3C5
:1036100008227B6813447B607B6803F00703002B60
:1036200014D07B6803F00703C3F108037B617B6957
:10363000DA437B689A4204D37A687B6913447B60DF
:1036400004E000237B6001E000237B60FDF7F4FBD6
:103650003D4B1B68002B04D100F0E2F83A4B0122ED
:103660001A607B68002B63DB7B68002B60D0374BD4
:103670001B687A689A425BD8354B3B62344B1B68B7
:103680007B6204E07B6A3B627B6A1B687B627B6ACD
:103690005A687B689A4203D27B6A1B68002BF1D17F
:1036A0007B6A2C4A934243D03B6A1B68082213442E
:1036B000FB617B6A1A683B6A1A607B6A5A687B689E
:1036C000D21A08235B009A4222D97A6A7B68134493
:1036D0003B617B6A5A687B68D21A3B695A607B6A95
:1036E0007A685A603B695B68FB60194BBB6102E01A
:1036F000BB691B68BB61BB691B685A68FB689A425F
:10370000F6D3BB691A683B691A60BB693A691A60EB
:103710000E4B1A687B6A5B68D31A0C4A13607B6A8B
:103720005B6843F000427B6A5A607B6A00221A6041
:10373000FDF790FBFB69002B01D1FCF7D3FEFB6981
:1037400018462837BD4680BD783D00201C0000206B
:10375000683D0020703D002080B588B000AF7860E3
:103760007B68BB617B68002B51D008235B42BA6940
:103770001344BB61BB697B617B695B68002B09DB20
:103780004FF0500383F31188BFF36F8FBFF34F8F58
:10379000BB60FEE77B691B68002B09D04FF050032C
:1037A00083F31188BFF36F8FBFF34F8FFB60FEE78A
:1037B0007B695B68002B2ADA7B691B68002B26D1AA
:1037C0007B695B6823F000427B695A60FDF734FB3C
:1037D0007B695B683B61104BFB6102E0FB691B6826
:1037E000FB61FB691B685A683B699A42F6D3FB6927
:1037F0001A687B691A60FB697A691A607B695A6882
:10380000064B1B681344054A1360FDF723FB00BFFA
:103810002037BD4680BD00BF683D00201C00002051
:1038200080B483B000AF104B23F007037B600F4AD6
:103830007B6813600D4B00225A600D4B43F6F83243
:103840005A600B4B00221A607B683B603B6843F672
:10385000F8325A603B68064A1A6000BF0C37BD4612
:103860005DF8047B704700BF6F010020683D0020B9
:10387000703D0020844641EA000313F003036DD13C
:10388000403A41D351F8043B40F8043B51F8043B23
:1038900040F8043B51F8043B40F8043B51F8043B2A
:1038A00040F8043B51F8043B40F8043B51F8043B1A
:1038B00040F8043B51F8043B40F8043B51F8043B0A
:1038C00040F8043B51F8043B40F8043B51F8043BFA
:1038D00040F8043B51F8043B40F8043B51F8043BEA
:1038E00040F8043B51F8043B40F8043B51F8043BDA
:1038F00040F8043B51F8043B40F8043B51F8043BCA
:1039000040F8043B403ABDD2303211D351F8043B69
:1039100040F8043B51F8043B40F8043B51F8043BA9
:1039200040F8043B51F8043B40F8043B103AEDD218
:103930000C3205D351F8043B40F8043B043AF9D269
:10394000043208D0D2071CBF11F8013B00F8013B3C
:1039500001D30B8803806046704700BF082A13D349
:103960008B078DD010F003038AD0C3F10403D21A61
:10397000DB071CBF11F8013B00F8013B80D331F895
:10398000023B20F8023B7BE7043AD9D3013A11F815
:10399000013B00F8013BF9D20B7803704B78437080
:1039A0008B7883706046704770B4840746D0541E8D
:1039B000002A41D0CDB2034602E0621EE4B31446B1
:1039C00003F8015B9A07F8D1032C2ED9CDB245EA52
:1039D00005250F2C45EA054519D903F110022646A5
:1039E000103E0F2E42F8105C42F80C5C42F8085C66
:1039F00042F8045C02F11002F2D8A4F1100222F0A5
:103A00000F0204F00F041032032C13440DD91E468C
:103A10002246043A032A46F8045BFAD8221F22F011
:103A200003020432134404F003042CB1C9B21C4451
:103A300003F8011BA342FBD170BC70471446034638
:103A4000C2E700BF4C45445F535749544348000008
:103A5000546D722053766300546D72510000000063
:053A600049444C450043
:103A65000400000000A24A0400000000000000005D
:103A75000102030406070809AAAAAAAAF83B00003E
:0400000508000000EF
:00000001FF
