:020000040800F2
:1000000000A00020A1050008E50500088B050008F8
:10001000E5050008E5050008E5050008000000000A
:10002000000000000000000000000000E5050008DE
:10003000E505000800000000E5050008E5050008EA
:10004000E5050008E5050008E5050008E5050008E8
:10005000E5050008E5050008E5050008E5050008D8
:10006000E5050008E5050008E5050008E5050008C8
:10007000E5050008E5050008E5050008E5050008B8
:10008000E5050008E5050008E5050008E5050008A8
:10009000E5050008E5050008E5050008E505000898
:1000A000E5050008E5050008E5050008E505000888
:1000B000E5050008E5050008E5050008E505000878
:1000C000E5050008E5050008E5050008E505000868
:1000D000E5050008E5050008E5050008E505000858
:1000E000E5050008E5050008E5050008E505000848
:1000F000E5050008E5050008E5050008E505000838
:10010000000000000000000000000000E5050008FD
:10011000E5050008E5050008E5050008E505000817
:10012000E5050008E5050008E5050008E505000807
:10013000E5050008E50500080000000000000000DB
:10014000E5050008E5050008E505000800000000D9
:10015000000000000000000000000000000000009F
:100160000000000000000000E5050008E5050008AB
:10017000E50500080000000000000000000000008D
:1001800000000000E505000880B582B000AF78608F
:10019000144B1B785A1CD1B2124A11701A467B6854
:1001A000D9B2114B99540F4B1B781A460E4B0021B4
:1001B00099540C4B1B7801330F2B05D87B680A2B05
:1001C00002D07B68002B0AD1064B00221A70064B26
:1001D00000221946042000F0CFF90346002B08370F
:1001E000BD4680BD100000200000002080B582B018
:1001F00000AF0BE07B68002B08D03B1D1A460021A6
:10020000072000F0B9F97B68DBB20AE03B1D1A4613
:10021000002140F2011000F0AFF90346002BE9D1B4
:10022000002318460837BD4680BD00BF80B483B0A8
:1002300000AF78600B46FB70FB78002B06D00949B5
:10024000084B5A697B6813434B6106E00549054B2F
:100250005A697B68DB4313404B6100BF0C37BD46D6
:1002600080BC70470010024080B487B000AF786057
:10027000396000237B6100233B610023FB60002386
:100280007B617EE001227B6902FA03F33B613B68FC
:100290001A683B691340FB60FA683B699A426DD16A
:1002A0003B681B79012B03D03B681B79022B36D1AD
:1002B0007B689A687B695B00032101FA03F3DB43E7
:1002C0001A407B689A607B689A683B685B7919463C
:1002D0007B695B0001FA03F31A437B689A607B68D1
:1002E0009B889AB27B699BB2012101FA03F39BB20E
:1002F000DB439BB213409AB27B689A807B689B88F1
:100300009BB21AB23B689B7919467B699BB201FA92
:1003100003F31BB213431BB29AB27B689A807B68CB
:100320001A687B695B00032101FA03F3DB431A407F
:100330007B681A607B681A683B681B7919467B6981
:100340005B0001FA03F31A437B681A607B68DA6882
:100350007B699BB25B00032101FA03F3DB431A4084
:100360007B68DA607B68DA683B68DB7919467B6911
:100370005B0001FA03F31A437B68DA607B6901339F
:100380007B617B690F2B7FF67DAF00BF1C37BD46BD
:1003900080BC704780B582B000AF01214FF40010DF
:1003A000FFF744FF4FF47F433B6003237B7101233E
:1003B0003B710023BB713B4619460348FFF754FFCE
:1003C00000BF0837BD4680BD0010004880B582B030
:1003D00000AFFFF7DFFFFFF709FF0346303BFB717C
:1003E000FB79082BF7D80A49094B9B8A9BB21AB2B2
:1003F000FB790733012000FA03F31BB253401BB211
:100400009BB28B82FB791846FFF7BEFEE3E700BF85
:100410000010004880B500AF1B4A1B4B1B6843F01F
:10042000010313601849184B5A68184B13404B606E
:10043000154A154B1B6823F0847323F48033136033
:10044000114A114B1B6823F4802313600E4A0E4B94
:100450005B6823F4FE0353600B4A0B4BDB6A23F00B
:100460000F03D3620849084B1A6B094B13400B6307
:10047000054B00229A6000F00FF8064B4FF0006227
:100480009A6000BF80BD00BF001002400CC07FF822
:10049000CCFC00FF00ED00E080B483B000AF00238F
:1004A0007B6000233B60324A314B1B6843F480334E
:1004B00013602F4B1B6803F400333B607B680133F0
:1004C0007B603B68002B03D17B68B3F5A06FF0D154
:1004D000274B1B6803F40033002B02D001233B6041
:1004E00001E000233B603B68012B3CD1214B1222F1
:1004F0001A601F4A1E4B5B6853601D4A1C4B5B68A9
:1005000053601B4A1A4B5B6843F480635360184A7C
:10051000174B5B6823F47C135360154A144B5B68DC
:1005200043F4E8135360124A114B1B6843F0807385
:10053000136000BF0E4B1B6803F00073002BF9D053
:100540000B4A0B4B5B6823F003035360084A084BCC
:100550005B6843F00203536000BF054B5B6803F028
:100560000C03082BF9D100BF0C37BD4680BC704787
:100570000010024000200240ABBE01E000207047A6
:10058000002A00D0106001207047069801884BF6C1
:10059000AB62914202D1043006907047FEE7000042
:1005A000002103E00A4B5B584350043109480A4BD1
:1005B00042189A42F6D3094A02E0002342F8043B6B
:1005C000074B9A42F9D3FFF725FFFFF7FFFE70476D
:1005D000E6050008000000200000002000000020C8
:0605E00014000020FEE7FC
:0400000508000000EF
:00000001FF
