:020000040800F2
:1000000000A00020F506000839070008390700089D
:100010003907000839070008390700080000000008
:100020000000000000000000000000003907000888
:1000300039070008000000003907000839070008E8
:100040003907000839070008390700083907000890
:100050003907000839070008390700083907000880
:100060003907000839070008390700083907000870
:100070003907000839070008390700083907000860
:100080003907000839070008390700083907000850
:100090003907000839070008390700083907000840
:1000A0003907000839070008390700083907000830
:1000B0003907000839070008390700083907000820
:1000C0003907000839070008390700083907000810
:1000D0003907000839070008390700083907000800
:1000E00039070008390700083907000839070008F0
:1000F00039070008390700083907000839070008E0
:1001000000000000000000000000000039070008A7
:1001100039070008390700083907000839070008BF
:1001200039070008390700083907000839070008AF
:10013000390700083907000800000000000000002F
:1001400039070008390700083907000800000000D7
:10015000000000000000000000000000000000009F
:1001600000000000000000003907000839070008FF
:100170003907000800000000000000000000000037
:10018000000000003907000880B483B000AF786039
:100190000B46FB70FB78002B06D00A49094B5A69C5
:1001A0007B6813434B6106E00649064B5A697B683E
:1001B000DB4313404B6100BF0C37BD465DF8047B49
:1001C000704700BF0010024080B487B000AF786075
:1001D000396000237B6100233B610023FB60002327
:1001E0007B617EE001227B6902FA03F33B613B689D
:1001F0001A683B691340FB60FA683B699A426DD10B
:100200003B681B79012B03D03B681B79022B36D14D
:100210007B689A687B695B00032101FA03F3DB4387
:100220001A407B689A607B689A683B685B791946DC
:100230007B695B0001FA03F31A437B689A607B6871
:100240009B889AB27B699BB2012101FA03F39BB2AE
:10025000DB439BB213409AB27B689A807B689B8891
:100260009BB21AB23B689B7919467B699BB201FA33
:1002700003F31BB213431BB29AB27B689A807B686C
:100280001A687B695B00032101FA03F3DB431A4020
:100290007B681A607B681A683B681B7919467B6922
:1002A0005B0001FA03F31A437B681A607B68DA6823
:1002B0007B699BB25B00032101FA03F3DB431A4025
:1002C0007B68DA607B68DA683B68DB7919467B69B2
:1002D0005B0001FA03F31A437B68DA607B69013340
:1002E0007B617B690F2B7FF67DAF00BF1C37BD465E
:1002F0005DF8047B704700BF80B582B000AF01217C
:100300004FF40010FFF740FF4FF47F433B600123A1
:100310003B7103237B710023BB710023FB713B46C0
:1003200019460348FFF750FF00BF0837BD4680BDA0
:100330000010004880B485B000AF78600023FB60F7
:10034000464A464B9B8A9BB263F0FF039BB2938263
:1003500079E07B681B781A46FB689A4207D13F4ACE
:100360003E4B9B8A9BB223F480739BB293827B6843
:1003700001331B781A46FB689A4207D1374A374B3C
:100380009B8A9BB223F400739BB293827B680233F7
:100390001B781A46FB689A4207D1304A2F4B9B8A3A
:1003A0009BB223F480639BB293827B6803331B78F8
:1003B0001A46FB689A4207D1284A284B9B8A9BB26F
:1003C00023F400639BB293827B6804331B781A4644
:1003D000FB689A4207D1214A204B9B8A9BB223F4A7
:1003E00080539BB293827B6805331B781A46FB6867
:1003F0009A4207D1194A194B9B8A9BB223F40053A6
:100400009BB293827B6806331B781A46FB689A423C
:1004100007D1124A114B9B8A9BB223F480439BB2B3
:1004200093827B6807331B781A46FB689A4207D190
:100430000A4A0A4B9B8A9BB2C3F30E039BB2938278
:10044000FB680133FB60FB68632B82DD0023FB60EC
:1004500000BF1437BD465DF8047B704700100048AC
:10046000F0B587B000AF4FF000034FF00004C7E9CC
:100470000234FFF741FF0023FB754DE0FC7D3DA3F7
:10048000D3E90023D7E9020101F0E6FC02460B465E
:1004900015461E46FB7D184601F078FC35A3D3E9CE
:1004A000002301F0D9FC02460B46104619464FF0D6
:1004B00000022D4B01F0FAFD02460B46284631465C
:1004C00001F018FB02460B4643EC172BB0EE470A2F
:1004D000F0EE670A00F034F951EC100B4FF0000217
:1004E000224B01F007FB02460B46104619464FF01F
:1004F00000021F4B01F0B0FC02460B4610461946A5
:1005000001F06CFF0346DAB207F11803234403F845
:10051000182CFB7D0133FB75FB7D072BAED93B46C9
:100520001846FFF707FF0EA3D3E90023D7E902011E
:1005300001F0E0FA03460C46C7E902344FF000022E
:100540000A4BD7E9020101F00DFF0346002B05D04D
:100550004FF000034FF00004C7E902348BE700BFFF
:10056000FCA9F1D24D62403F000014400000F03F72
:10057000000049401F85EB51B81E194080B500AFFF
:100580001F4A1F4BD3F8883043F47003C2F88830F9
:100590001C4A1C4B1B6843F0010313601949194B9B
:1005A0005A68194B13404B60164A164B1B6823F0D0
:1005B000847323F480331360124A124B1B6823F4B4
:1005C000802313600F4A0F4B5B6823F4FE035360D4
:1005D0000C4A0C4BDB6A23F00F03D3620949094B29
:1005E0001A6B0A4B13400B63064B00229A6000F013
:1005F0000FF8034B4FF000629A6000BF80BD00BF50
:1006000000ED00E0001002400CC07FF8CCFC00FFC1
:1006100080B483B000AF00237B6000233B60334A8B
:10062000324B1B6843F480331360304B1B6803F478
:1006300000333B607B6801337B603B68002B03D158
:100640007B68B3F5A06FF0D1284B1B6803F400332F
:10065000002B02D001233B6001E000233B603B689C
:10066000012B3CD1224B12221A60204A1F4B5B689F
:1006700053601E4A1D4B5B6853601C4A1B4B5B68F2
:1006800043F480635360194A184B5B6823F47C136E
:100690005360164A154B5B6843F4E8135360134AE2
:1006A000124B1B6843F08073136000BF0F4B1B6835
:1006B00003F00073002BF9D00C4A0C4B5B6823F05D
:1006C00003035360094A094B5B6843F0020353601C
:1006D00000BF064B5B6803F00C03082BF9D100BF89
:1006E0000C37BD465DF8047B704700BF0010024028
:1006F00000200240002103E00A4B5B5843500431C4
:1007000009480A4B42189A42F6D3094A02E00023EC
:1007100042F8043B074B9A42F9D3FFF72FFFFFF74C
:100720009FFE7047F8250008000000200000002010
:100730000000002000000020FEE700000000000094
:1007400000B551EC100B2C4A21F00043934285B0C8
:1007500027DD2A4A934209DD10EE102A0B4601F0EC
:10076000C7F941EC100B05B05DF804FB684600F0DA
:1007700047F800F00300012827D002281DD068B3F5
:100780009DED021B9DED000B00F062FA53EC102B67
:1007900010EE100A03F1004141EC100B05B05DF8BA
:1007A00004FB00209FED121B00F0A6FF51EC100B84
:1007B00041EC100B05B05DF804FB01209DED021B20
:1007C0009DED000B00F098FFE0E79DED021B9DED15
:1007D000000B00F03DFA51EC100BC2E701209DED3B
:1007E000021B9DED000B00F087FF51EC100BB8E7EA
:1007F0000000000000000000FB21E93FFFFFEF7F49
:100800002DE9F04F53EC102B974923F0004B8B450B
:100810008FB040F3878095498B451C46824629DC82
:10082000002C194610EE100A85A3D3E9002340F3EB
:10083000A58101F05DF98E4B9B4504460D4600F005
:10084000878081A3D3E9002301F052F902460B46C9
:10085000CAE900232046294601F04AF97AA3D3E9E0
:10086000002301F045F90125CAE9020128460FB02D
:10087000BDE8F08F7F498B4540F387807E498B45EB
:100880005BDC4FEA2B55A5F21645ABEB055710463E
:10089000394610EE106A01F079FD01F077FA8046D2
:1008A000894642464B4630463946CDE9088901F033
:1008B0001FF90022714B01F0CFFA8946804601F002
:1008C00065FD01F063FA06460F4632463B46404658
:1008D0004946CDE90A6701F00BF90022674B01F0A8
:1008E000BBFA00220023CDE90C0101F01DFD002818
:1008F00000F07081002330463946002201F014FDDB
:10090000002814BF012302235D4A019202210091B5
:100910002A46514608A800F0DFFA002CC0F24C81AC
:10092000054606E080ED000B00250024C0E90245E5
:10093000002528460FB0BDE8F08F10EE100A1946CA
:1009400001F0D6F80025CAE90201CAE90001F0E782
:100950003FA3D3E9002301F0CBF83FA3D3E9002361
:100960000D46044601F0C4F802460B46CAE90023CE
:100970002946204601F0BCF837A3D3E9002301F053
:10098000B7F80125CAE90201D3E700F07FFF57EC71
:10099000106B10EE100A32A3D3E90023394601F0A0
:1009A0005BFA0022374B01F0A5F801F0EFFC054699
:1009B00001F0ECF922A3D3E90023CDE9040101F011
:1009C0004BFA02460B463046394601F091F81EA319
:1009D000D3E9002380468946DDE9040101F03CFAB1
:1009E0001F2DCDE9020151DC274B6A1E53F822303E
:1009F0009B454BD002460B464046494601F078F8ED
:100A000006460F46CAE9006732463B46404649461D
:100A100001F06EF8DDE9022301F06AF8002CCAE962
:100A2000020186DA07F1004401F100436D42CAF881
:100A30000060CAF80440CAF80800CAF80C3078E729
:100A400000004054FB21F93F3163621A61B4D03D8C
:100A50000000601A61B4D03D7370032E8A19A33B65
:100A600083C8C96D305FE43FFB21E93F7BD9024079
:100A7000FB21F93FFB213941FFFFEF7F000070416F
:100A80009C2400080000E03F1C240008DDE902234C
:100A90004046494601F02CF84FEA2B5BC1F30A535C
:100AA000C3EB0B0306460F46102BCAE90067ABDD0C
:100AB0005DA3D3E90023DDE9040101F0CDF9064689
:100AC0000F4602460B464046494601F011F8CDE973
:100AD000060102460B464046494601F009F83246F7
:100AE0003B4601F005F852A3D3E9002306460F4622
:100AF000DDE9040101F0B0F932463B4600F0F8FFB1
:100B00000B46CDE902010246DDE9060100F0F0FFE7
:100B1000C1F30A53C3EB0B0B06460F46BBF1310F73
:100B2000CAE9006776DD45A3D3E90023DDE90401C6
:100B300001F092F906460F4602460B46DDE9060132
:100B400000F0D6FF02460B4680468946DDE90601E5
:100B500000F0CEFF32463B4600F0CAFF39A3D3E98E
:100B6000002306460F46DDE9040101F075F932461F
:100B70003B4600F0BDFFCDE902013BE700F0BAFFC4
:100B80002D4B9B4504460D4626D025A3D3E90023D3
:100B900000F0B0FF02460B46CAE900232946204672
:100BA00000F0A6FF1EA3D3E9002300F0A3FF4FF03F
:100BB000FF35CAE90201BCE6DAF80420DAF80C30A5
:100BC00002F1004203F100434542CAF80420CAF88A
:100BD0000C30AEE6032397E613A3D3E9002300F01D
:100BE00089FF13A3D3E900230D46044600F082FFDA
:100BF00002460B46CAE900232946204600F078FF4A
:100C00000BA3D3E9002300F075FF4FF0FF35CAE9CD
:100C100002018EE6DDE90689F6E600BFAFF300804B
:100C20003163621A61B4D03D0000601A61B4D03DF6
:100C30007370032E8A19A33BFB21F93F0000002E9D
:100C40008A19A33BC14920259A837B390000000003
:100C50002DE9F04F57EC106B2DED028BB0EE418A71
:100C6000F0EE618A27F00049B9F1795F83B072DA5A
:100C700010EE100A394601F089FB002800F0F680DA
:100C800032463B463046394601F0E6F87CA3D3E9CC
:100C9000002304460D4601F0DFF87BA3D3E90023CF
:100CA00000F028FF22462B4601F0D6F878A3D3E9BE
:100CB000002300F01DFF22462B4601F0CDF876A35D
:100CC000D3E9002300F016FF22462B4601F0C4F8BA
:100CD00073A3D3E9002300F00BFF22462B4601F05B
:100CE000BBF871A3D3E9002300F004FF22462B4692
:100CF00001F0B2F882468B460022714B204629460D
:100D000001F0AAF85246804689465B4620462946AD
:100D100001F0A2F853EC182B04460D463046394634
:100D200001F09AF802460B462046294600F0E0FE04
:100D300002460B464046494600F0DAFE02460B46A4
:100D40000020604900F0D4FE41EC100B03B0BDEC74
:100D5000028BBDE8F08F10EE102A10EE100A3B4611
:100D6000394601F079F846A3D3E9002304460D463D
:100D700001F072F844A3D3E9002300F0BBFE224641
:100D80002B4601F069F842A3D3E9002300F0B0FE3E
:100D900022462B4601F060F83FA3D3E9002300F080
:100DA000A9FE22462B4601F057F83DA3D3E90023C4
:100DB00000F09EFE22462B4601F04EF83AA3D3E9FE
:100DC000002300F097FE2B46224601F045F83E4BEB
:100DD000994582468B468FDD3C4B99453DDC002290
:100DE000A9F50013002037499046994600F080FE8F
:100DF000CDE900010022324B2046294601F02CF8B3
:100E000042464B4600F074FE5246804689465B4699
:100E10002046294601F020F853EC182B04460D46D5
:100E20003046394601F018F802460B46204629465E
:100E300000F05EFE02460B464046494600F058FE72
:100E400002460B46DDE9000100F052FE41EC100BBA
:100E500003B0BDEC028BBDE8F08F9FED157B4FF02A
:100E600000088DED007BDFF86890C3E79FED120B63
:100E700003B0BDEC028BBDE8F08F00BFAFF3008084
:100E8000D43888BEE9FAA8BDC4B1B4BD9EEE213EF7
:100E9000AD529C804F7E923E9015CB19A001FA3E38
:100EA0007751C1166CC1563F4C5555555555A53F08
:100EB000000000000000E73F000000000000F03FDD
:100EC0000000E03F0000F03F3233D33F0000E93F35
:100ED0000000D23F000000002DE9F04FADF51B7D72
:100EE000814CA49E814D54F8264007942646D41E7A
:100EF00085FB0475E417C4EBA50424EAE4741D46DD
:100F00000A93631CA3EB8303013D02EBC303069327
:100F10002B460B940095651BF4180390089116D48A
:100F20002C44013422AEA59F08E057F8250000F0BC
:100F30002DFF0135A542E6E8020108D0002DF4DAC4
:100F4000013500200021A542E6E80201F6D1079B09
:100F5000002BC0F2C283079B03F1010B0A9B22A95D
:100F6000DB001A4601EB03090493039B0DF5E47AB9
:100F700019460AEBCB0B01EB0208009B002BC0F2D9
:100F80008F81039C4D460026002775E90223F4E873
:100F9000020100F061FF02460B463046394600F080
:100FA000A9FD444506460F46EFD1EAE80267DA4557
:100FB00009F10809E1D107990498039C049101F112
:100FC0008043023B9B0020441A1D83460EA8024426
:100FD00003440D920C93049A9AA901EBC203002AD0
:100FE00053E9284529DD0DF5E47A0AEBC2080DF135
:100FF000340900223E4B2046294600F02DFF01F027
:10100000C5F900F0C3FE00223A4B06460F4600F039
:1010100023FF02460B462046294600F069FD01F0F9
:10102000B5F978E9022349F8040F3946304600F053
:1010300061FDD04504460D46DBD1DDF8189045EC46
:10104000104B484600F0BCFC55EC104B00224FF012
:101050007F5310EE100A294600F0FEFE41EC100B03
:1010600000F01EFC002251EC100B234B00F0F4FEAC
:1010700002460B462046294600F03AFD0D4604463E
:1010800001F084F9804600F081FE0B4602462946B5
:10109000204600F02DFD4B46002B06460F4640F340
:1010A000E580049A0EA9013AC9F1180351F82250BB
:1010B00045FA03F101FA03F30EA8EB1A40F82230C7
:1010C000C9F11705884443FA05F5002D41DD049B5D
:1010D000002B08F1010840F3C982002214460DA933
:1010E0000498AE4612E000BFA4250008ABAAAA2AC5
:1010F0000000703E0000704100002040C3F1807588
:101100000BB10D600124013290420DDD51F8043F16
:10111000002CF3D0C3F1FF13013203F57F4390425B
:101120000B604FF00104F1DC7546069B002B0EDDD1
:10113000012B00F0A380022B09D1049B5A1E0EAB99
:101140000EA953F82230C3F3150341F82230022DC3
:1011500074D0002200233046394601F0E5F800281B
:1011600000F04982049A079B501E834210DC02F172
:101170008043013B0EAA0D9C02EB8303002253F82F
:101180000419A34242EA0102F9D1002A40F0A480E6
:10119000079B0EAA013B52F82330002B40F06482DB
:1011A0000C9A012352F8041901330029FAD0049A49
:1011B000D31802F1010A9A4509933CDC0B9B0A9A69
:1011C00009990AEB0309049B984690448B1809F18E
:1011D0008049A59A09F1FF3902EB890922AA02EB9D
:1011E000C303049372AB02EBC80803EBCA0A59F8B5
:1011F000040F00F0CBFD009B002BE8E802014FF04C
:1012000000064FF0000711DB039C454675E90223F9
:10121000F4E8020100F020FE02460B463046394653
:1012200000F068FC5C4506460F46EFD1049B9845EC
:10123000EAE80267DBD1099B0493CCE632463B46E1
:101240000020B34900F054FC06460F46002C80D025
:1012500006989FEDAB0B00F0B3FB3046394653ECDC
:10126000102B00F045FC06460F4672E711D1049B97
:101270000EAA013B52F82350ED1526E7049B5A1E97
:101280000EAB0EA953F82230C3F3160341F82230F7
:101290005DE700229F4B01F065F858B9054658E715
:1012A00000260027EAE80267DA4509F108097FF419
:1012B00064AE80E6049B002B08F10108C8BF02253C
:1012C0003FF70BAF32463B460020914900F010FC3F
:1012D000022506460F463CE70EA9CDF8248051F8BA
:1012E00020300699009018390246039506916BB993
:1012F00000F18043013B0EA800EB830353F804097F
:10130000013A18390028F9D00092069106989FED0D
:101310007C0B00F055FB009B002B55EC104BC0F2F2
:10132000C181DA000DF5E4780EA901EB830608EB24
:10133000020B069204360BF1080756F8040D00F074
:1013400025FD22462B4600F087FD002267E90201B9
:10135000714B2046294600F07FFD474504460D4667
:10136000EBD14AACDDF81C9004944FF0000AB9F1BF
:10137000000FC0F22B81DFF8A4815D4662A3D3E9A0
:10138000002300260027002403E0A24510DBF8E834
:101390000223F5E8020100F05FFD02460B463046ED
:1013A000394600F0A7FB0134A14506460F46ECDAAA
:1013B000049B03EBCA03ABF1080BC3E9006770ABF6
:1013C0009B450AF1010AD2D1A49B049C032B00F295
:1013D0008D80DFE813F0DD00A500A5000400009B70
:1013E000002B40F35C81009B03F1005B069B0BF13B
:1013F000FF3BE2184FEACB03D2E9008903F1080270
:10140000103304EB020AE5183AED027B42464B46E4
:1014100051EC170B8DED047B00F06CFB06460F467C
:1014200002460B46DDE9040100F062FB4B464246F2
:1014300000F060FB65E902014CAB9D42B046B94645
:10144000CAE90067E0D1009B012B40F32881069B8D
:10145000234493ED007B4FEACB0B0BF1100A8DED8B
:10146000007BA2440BF1080B04EB0B05D0460DF5F5
:101470009C7BCDF810A075E9029ADDE900014A468F
:10148000534600F037FB06460F4602460B464846D9
:10149000514600F02DFBDDE9002300F02BFB68E94D
:1014A0000201C345CDE90067C5E90067E3D1DDF876
:1014B00010A0002000217AE9022300F01BFBD34595
:1014C000F9D1039B002B00F0D3806268E368089F8A
:1014D0002568A4683D6002F1004203F1004301F178
:1014E00000417A60FB60BC6038617961099B03F060
:1014F00007000DF51B7DBDE8F08F00BFAFF3008046
:10150000000000000000F03F00000040FB21F93F18
:101510000000F03F0000E03F0000703EC0250008E2
:10152000069D083525440020002175E9022300F0BE
:10153000E1FAA542F9D1039B002B4AD0089E02464E
:1015400001F1004386E80C000B460246D4E9000195
:1015500000F0CEFA009B002B0DDD4CAD0124F5E828
:10156000022300F0C7FA009B0134A342F7DA039B81
:10157000002B00F0A78001F1004308990246C1E961
:101580000223099B03F007000DF51B7DBDE8F08FDA
:10159000069B009D0833002000211C4474E90223AF
:1015A000013D00F0A7FA6B1CF8D1039B0246002B0B
:1015B00000F08E8001F100430899C1E90023099BE6
:1015C00003F007000DF51B7DBDE8F08F0026002716
:1015D000EEE6089B0246C3E900010B46D4E9000190
:1015E00000F086FA009C002C02460B46B5DC0899F8
:1015F000C1E90223C5E7069B0395584247EC106BEF
:10160000CDF8248000F0DCF955EC104B0022384B6B
:1016100010EE100A294600F0A5FE002834D0002262
:10162000344B2046294600F017FC00F0AFFE06467A
:1016300000F0ACFB00222E4B00F00EFC02460B46E5
:101640002046294600F054FA00F0A0FE0499069BBB
:101650000A461833013206930B460EA9009241F850
:10166000230041F8226051E60123A0E500245CE557
:10167000D4E90067D4E90223089DC5E90401C5E95E
:101680000067C5E9022331E72946204600F07EFEC7
:10169000049A00920EA941F8220037E64AAC0020D5
:1016A00000210EE7A49B032B3FF620AF01A252F8C6
:1016B00023F000BFEB160008E3160008E31600084D
:1016C0009D1600080B4608990246C1E9022358E717
:1016D0000B460899C1E9002371E70A9BDB000493DC
:1016E00069E4002000214AAC25E7002000215CE7E6
:1016F000000070410000703E2DE9F04F55EC104B9A
:101700002DED028BB0EE418AF0EE618A25F00043A8
:10171000B3F1795F83B0824607DA10EE100A2946EA
:1017200000F034FE002800F08E8022462B46204632
:10173000294600F091FB06460F4602460B4620461E
:10174000294600F089FB47A3D3E900238046894658
:101750003046394600F080FB44A3D3E9002300F073
:10176000C7F932463B4600F077FB42A3D3E900239A
:1017700000F0C0F932463B4600F06EFB3FA3D3E9D0
:10178000002300F0B5F932463B4600F065FB3DA36F
:10179000D3E9002300F0AEF9CDE90001BAF1000F62
:1017A00037D000222E4B51EC180B00F055FBDDE931
:1017B000002382468B464046494600F04DFB0246D8
:1017C0000B465046594600F093F932463B4600F02E
:1017D00043FB53EC182B00F08BF91FA3D3E9002334
:1017E00006460F464046494600F036FB02460B4689
:1017F0003046394600F07EF902460B46204629461F
:1018000000F076F941EC100B03B0BDEC028BBDE8A3
:10181000F08F02460B463046394600F01DFB0EA302
:10182000D3E9002300F064F942464B4600F014FB74
:1018300022462B4600F05EF941EC100B03B0BDECE4
:10184000028BBDE8F08F45EC104B03B0BDEC028B72
:10185000BDE8F08FAFF30080495555555555C53F4C
:101860000000E03F7CD5CF5A3AD9E53DEB9C2B8A6E
:10187000E6E55A3E7DFEB157E31DC73ED561C1196D
:10188000A0012A3FA6F810111111813F53EC102B33
:1018900023F0004343EC102B704700BF0000000012
:1018A00051EC100BC1F30A532DE9F041A3F2FF35BF
:1018B000132D0C460F4610EE106A1DDC002D43DB85
:1018C0003D4B43FA05F801EA0803034319D038A356
:1018D000D3E9002300F00EF90022002300F04CFDB4
:1018E00020B1002C49DB27EA0804002623463246B3
:1018F00043EC102BBDE8F081332D06DDB5F5806F8C
:1019000032D041EC100BBDE8F081A3F213434FF04D
:10191000FF3828FA03F810EA080FF2D024A3D3E91D
:10192000002300F0E7F80022002300F025FD002846
:10193000DCD0002C27DB3C4626EA0806234632464C
:1019400043EC102BBDE8F08119A3D3E9002300F08C
:10195000D1F80022002300F00FFD0028C6D0002C93
:101960001CDB00263446C1E710EE102A0B4600F0BF
:10197000C1F841EC100BBDE8F0814FF4801343FA3D
:1019800005F52F44AFE7142D10D00123C5F1340520
:1019900003FA05F5AE1928BFFF18CCE724F0004282
:1019A000064B324318BF1C4600269FE70137C2E7AB
:1019B0009C7500883CE4377EFFFF0F000000F0BFFD
:1019C00053EC102B70B5C3F30A541946054614BBEB
:1019D00023F0004111432AD019460022384B394EDA
:1019E00010EE100A00F038FAB54202460B461FDB33
:1019F000C1F30A54363C2C4440F2FE7084421FDC92
:101A0000002C2DDD21F0FF4121F4E00141EA0453D7
:101A100043EC102B70BD40F2FF708442EBD110EE0E
:101A2000100A194600F066F841EC100B70BD70BD4D
:101A30001FA3D3E9002300F00FFA41EC100B70BD97
:101A400043EC112B9FED1C0B00F040F81AA3D3E9D7
:101A5000002351EC100B00F0FFF941EC100B70BDAE
:101A600014F1350F13DA4CF250318D4243EC112B47
:101A7000E8DC9FED0F0B00F029F80DA3D3E900235C
:101A800051EC100B00F0E8F941EC100B70BD21F0A7
:101A9000FF4121F4E001363441EA0453104619466F
:101AA0000022094B00F0D8F941EC100B70BD00BFCB
:101AB00059F3F8C21F6EA5019C7500883CE4377E7F
:101AC00000005043B03CFFFF0000903C53EC102B53
:101AD00011EE900A23F0004100F0004041EA0003BB
:101AE00043EC102B704700BF81F0004102E000BFC3
:101AF00083F0004330B54FEA41044FEA430594EACE
:101B0000050F08BF90EA020F1FBF54EA000C55EA08
:101B1000020C7FEA645C7FEA655C00F0E2804FEAD9
:101B20005454D4EB5555B8BF6D420CDD2C4480EABB
:101B3000020281EA030382EA000083EA010180EAEB
:101B4000020281EA0303362D88BF30BD11F0004F39
:101B50004FEA01314FF4801C4CEA113102D040426F
:101B600061EB410113F0004F4FEA03334CEA1333AA
:101B700002D0524263EB430394EA050F00F0A780C2
:101B8000A4F10104D5F1200E0DDB02FA0EFC22FABD
:101B900005F2801841F1000103FA0EF2801843FAB1
:101BA00005F359410EE0A5F120050EF1200E012AA2
:101BB00003FA0EFC28BF4CF0020C43FA05F3C018E0
:101BC00051EBE37101F0004507D54FF0000EDCF159
:101BD000000C7EEB00006EEB0101B1F5801F1BD302
:101BE000B1F5001F0CD349085FEA30004FEA3C0C06
:101BF00004F101044FEA445212F5800F80F09A80FC
:101C0000BCF1004F08BF5FEA500C50F1000041EBFF
:101C1000045141EA050130BD5FEA4C0C404141EB03
:101C2000010111F4801FA4F10104E9D191F0000F2A
:101C300004BF01460020B1FA81F308BF2033A3F1AD
:101C40000B03B3F120020CDA0C3208DD02F1140CA4
:101C5000C2F10C0201FA0CF021FA02F10CE002F1DF
:101C60001402D8BFC2F1200C01FA02F120FA0CFCD8
:101C7000DCBF41EA0C019040E41AA2BF01EB045121
:101C8000294330BD6FEA04041F3C1CDA0C340EDC1F
:101C900004F11404C4F1200220FA04F001FA02F362
:101CA00040EA030021FA04F345EA030130BDC4F120
:101CB0000C04C4F1200220FA02F001FA04F340EA15
:101CC0000300294630BD21FA04F0294630BD94F0C6
:101CD000000F83F4801306BF81F480110134013DAD
:101CE0004EE77FEA645C18BF7FEA655C29D094EA1E
:101CF000050F08BF90EA020F05D054EA000C04BF9C
:101D00001946104630BD91EA030F1EBF0021002086
:101D100030BD5FEA545C05D14000494128BF41F025
:101D2000004130BD14F580043CBF01F5801130BD89
:101D300001F0004545F0FE4141F470014FF0000014
:101D400030BD7FEA645C1ABF194610467FEA655CC5
:101D50001CBF0B46024650EA013406BF52EA033567
:101D600091EA030F41F4002130BD00BF90F0000F55
:101D700004BF0021704730B54FF4806404F1320491
:101D80004FF000054FF0000150E700BF90F0000F4A
:101D900004BF0021704730B54FF4806404F1320471
:101DA00010F0004548BF40424FF000013EE700BF41
:101DB00042004FEAE2014FEA31014FEA02701FBFD1
:101DC00012F07F4393F07F4F81F06051704792F0A3
:101DD000000F14BF93F07F4F704730B54FF460741D
:101DE00001F0004521F0004120E700BF50EA010268
:101DF00008BF704730B54FF000050AE050EA010215
:101E000008BF704730B511F0004502D5404261EB84
:101E100041014FF4806404F132045FEA915C3FF4C5
:101E2000DCAE4FF003025FEADC0C18BF03325FEA5E
:101E3000DC0C18BF033202EBDC02C2F1200300FA13
:101E400003FC20FA02F001FA03FE40EA0E0021FA38
:101E500002F11444C1E600BF70B54FF0FF0C4CF422
:101E6000E06C1CEA11541DBF1CEA135594EA0C0FD8
:101E700095EA0C0F00F0DEF82C4481EA030621EA13
:101E80004C5123EA4C5350EA013518BF52EA03354E
:101E900041F4801143F4801338D0A0FB02CE4FF000
:101EA0000005E1FB02E506F00042E0FB03E54FF030
:101EB0000006E1FB03569CF0000F18BF4EF0010E28
:101EC000A4F1FF04B6F5007F64F5407404D25FEA24
:101ED0004E0E6D4146EB060642EAC62141EA5551D7
:101EE0004FEAC52040EA5E504FEACE2EB4F1FD0C19
:101EF00088BFBCF5E06F1ED8BEF1004F08BF5FEA97
:101F0000500E50F1000041EB045170BD06F0004648
:101F100046EA010140EA020081EA0301B4EB5C04F5
:101F2000C2BFD4EB0C0541EA045170BD41F48011ED
:101F30004FF0000E013C00F3AB8014F1360FDEBF12
:101F4000002001F0004170BDC4F10004203C35DAEE
:101F50000C341BDC04F11404C4F1200500FA05F371
:101F600020FA04F001FA05F240EA020001F0004212
:101F700021F0004110EBD37021FA04F642EB060188
:101F80005EEA430E08BF20EAD37070BDC4F10C04B2
:101F9000C4F1200500FA04F320FA05F001FA04F276
:101FA00040EA020001F0004110EBD37041F1000162
:101FB0005EEA430E08BF20EAD37070BDC4F120056D
:101FC00000FA05F24EEA020E20FA04F301FA05F2D5
:101FD00043EA020321FA04F001F0004121FA04F27D
:101FE00020EA020000EBD3705EEA430E08BF20EA4D
:101FF000D37070BD94F0000F0FD101F00046400087
:1020000041EB010111F4801F08BF013CF7D041EA08
:10201000060195F0000F18BF704703F0004652000C
:1020200043EB030313F4801F08BF013DF7D043EADD
:102030000603704794EA0C0F0CEA135518BF95EA93
:102040000C0F0CD050EA410618BF52EA4306D1D11A
:1020500081EA030101F000414FF0000070BD50EA39
:10206000410606BF1046194652EA430619D094EAC3
:102070000C0F02D150EA013613D195EA0C0F05D1AD
:1020800052EA03361CBF104619460AD181EA030101
:1020900001F0004141F0FE4141F470014FF00000B9
:1020A00070BD41F0FE4141F4780170BD70B54FF054
:1020B000FF0C4CF4E06C1CEA11541DBF1CEA1355D4
:1020C00094EA0C0F95EA0C0F00F0A7F8A4EB0504B6
:1020D00081EA030E52EA03354FEA013100F08880AD
:1020E0004FEA03334FF0805545EA131343EA126376
:1020F0004FEA022245EA111545EA10654FEA00262B
:102100000EF000419D4208BF964244F1FD0404F5E3
:10211000407402D25B084FEA3202B61A65EB03053F
:102120005B084FEA32024FF480104FF4002CB6EBFC
:10213000020E75EB030E22BFB61A754640EA0C007C
:102140005B084FEA3202B6EB020E75EB030E22BFBC
:10215000B61A754640EA5C005B084FEA3202B6EBFD
:10216000020E75EB030E22BFB61A754640EA9C00BC
:102170005B084FEA3202B6EB020E75EB030E22BF8C
:10218000B61A754640EADC0055EA060E18D04FEA4A
:10219000051545EA16754FEA06164FEAC30343EAEA
:1021A00052734FEAC2025FEA1C1CC0D111F4801FB7
:1021B0000BD141EA00014FF000004FF0004CB6E7B0
:1021C00011F4801F04BF01430020B4F1FD0C88BF4F
:1021D000BCF5E06F3FF6AFAEB5EB030C04BFB6EB5A
:1021E000020C5FEA500C50F1000041EB045170BD4D
:1021F0000EF0004E4EEA113114EB5C04C2BFD4EB7A
:102200000C0541EA045170BD41F480114FF0000EFD
:10221000013C90E645EA060E8DE60CEA135594EA79
:102220000C0F08BF95EA0C0F3FF43BAF94EA0C0F7C
:102230000AD150EA01347FF434AF95EA0C0F7FF4F1
:1022400025AF104619462CE795EA0C0F06D152EA45
:1022500003353FF4FDAE1046194622E750EA410629
:1022600018BF52EA43067FF4C5AE50EA41047FF43A
:102270000DAF52EA43057FF4EBAE12E74FF0FF3C9F
:1022800006E000BF4FF0010C02E000BF4FF0010C70
:102290004DF804CD4FEA410C7FEA6C5C4FEA430CE9
:1022A00018BF7FEA6C5C1BD001B050EA410C0CBF38
:1022B00052EA430C91EA030F02BF90EA020F00209A
:1022C000704710F1000F91EA030F58BF994208BF01
:1022D00090422CBFD8176FEAE37040F001007047BE
:1022E0004FEA410C7FEA6C5C02D150EA013C07D115
:1022F0004FEA430C7FEA6C5CD6D152EA033CD3D060
:102300005DF8040B704700BF8446104662468C4659
:102310001946634600E000BF01B5FFF7B7FF00288C
:1023200048BF10F1000F01BD4DF808EDFFF7F4FFB5
:102330000CBF012000205DF808FB00BF4DF808ED40
:10234000FFF7EAFF34BF012000205DF808FB00BF63
:102350004DF808EDFFF7E0FF94BF012000205DF885
:1023600008FB00BF4DF808EDFFF7CEFF94BF01203A
:1023700000205DF808FB00BF4DF808EDFFF7C4FF33
:1023800034BF012000205DF808FB00BF4FEA410286
:1023900012F5001215D211D56FF47873B3EB6252B7
:1023A00012D94FEAC12343F0004343EA505311F0DE
:1023B000004F23FA02F018BF404270474FF0000070
:1023C000704750EA013005D111F0004008BF6FF0AE
:1023D000004070474FF00000704700BF4A0011D224
:1023E00012F5001211D20DD56FF47873B3EB62526F
:1023F0000ED44FEAC12343F0004343EA505323FA7B
:1024000002F070474FF00000704750EA013002D1EF
:102410004FF0FF3070474FF000007047FB21F93F4D
:10242000FB2109407CD91240FB2119407A6A1F40E8
:102430007CD92240BBFD2540FB2129403A462C4057
:102440007A6A2F405C4731407CD932409C6B3440E3
:10245000BBFD3540DB8F3740FB2139401BB43A4090
:102460003A463C405AD83D407A6A3F404C7E404014
:102470005C4741406C1042407CD942408CA24340B2
:102480009C6B4440AC344540BBFD4540CBC6464008
:10249000DB8F4740EB584840FB21494083F9A200BD
:1024A000444E6E00FC291500D1572700DD34F5009D
:1024B00062DBC0003C999500419043006351FE00EF
:1024C000BBDEAB00B761C5003A6E2400D24D4200BE
:1024D0004906E00009EA2E001C92D100EB1DFE0027
:1024E00029B11C00E83EA700F535820044BB2E0050
:1024F0009CE98400B4267000417E5F00D6913900CB
:10250000538339009CF439008B5F840028F9BD00A7
:10251000F81F3B00DEFF97000F980500112FEF001A
:102520000A5A8B006D1F6D00CF7E360009CB270045
:10253000464FB7009E663F002DEA5F00BA27750040
:10254000E5EBC7003D7BF100F739070092528A00A6
:10255000FB6BEA001FB15F00085D8D003003560081
:102560007BFC4600F0AB6B0020BCCF0036F49A0039
:10257000E3A91D005E619100081BE60085996500D6
:10258000A0145F008D40680080D8FF0027734D00C5
:1025900006063100CA561500C9A873007BE2600028
:1025A0006B8CC0000200000003000000040000006B
:1025B000060000000000000000000040FB21F93F81
:1025C000000000002D44743E000000809846F83C56
:1025D0000000006051CC783B00000080831BF03984
:1025E0000000004020257A38000000802282E33677
:0825F000000000001DF3693535
:0400000508000000EF
:00000001FF
